:100000000C94921C0C94AB1C0C94AB1C0C94AB1C6D
:100010000C94AB1C0C94AB1C0C94AB1C0C94AB1C44
:100020000C94AB1C0C94AB1C0C94AB1C0C94AB1C34
:100030000C94AB1C0C94AB1C0C94AB1C0C94AB1C24
:100040000C94AB1C0C94AB1C0C94AB1C0C94AB1C14
:100050000C94AB1C0C94AB1C0C94AB1C0C94AB1C04
:100060000C94AB1C0C94AB1C0C94AB1C0C94AB1CF4
:100070000C94AB1C0C94AB1C0C94AB1C0C94AB1CE4
:100080000C94AB1C0C94AB1C0C94AB1C0C94AB1CD4
:100090000C94AB1C0C94AB1C0C94AB1C0C94AB1CC4
:1000A0000C94AB1C0C94AB1C0C94AB1C0C94AB1CB4
:1000B0000C94AB1C0C94AB1C0C94AB1C0C94AB1CA4
:1000C0000C94AB1C0C94AB1C0C94AB1C0C94AB1C94
:1000D0000C94AB1C0C94AB1C0C94AB1C0C94AB1C84
:1000E0000C94AB1CFFFFFFFFFFFFFFFFFFFFFFFFB5
:1000F000FFFFFFFFFFFFFFFFFFFFFFFFFFFFFFFF10
:10010000FFFFFFFFFFFFFFFFFFFFFFFFFFFFFFFFFF
:10011000FFFFFFFFFFFFFFFFFFFFFFFFFFFFFFFFEF
:10012000FFFFFFFFFFFFFFFFFDFFFFFFFFFFFFFFE1
:10013000FFFFFFFFFFFFFFFFFFFFDEFFFFFFFFFFF0
:10014000FFFFFFFFFFFFFFFFFFEFFFFFFFFFFFFFCF
:10015000FFFFFFFFFFFFFFFFFFEDFEFFFFFFFFFFC2
:10016000FFFFFFFFFFFFFFFFFFFFFFFFFFFFFFFF9F
:10017000FFFFFFFFFFFFFBFFEFFFFFFFFFFFFFFFA3
:10018000FFFFFFFFFFFFFFFFFFFFFFFFFFFFFFFF7F
:10019000FFFFFFFFDFFFFFFDFFFFFFFFFFFFFFFF91
:1001A000FFFFFFFFFFFFFFFFFFFFFFFFFFFFFFFF5F
:1001B000FFBFFFFFFFFFFFFFFFFFFFFFFFFFFFFF8F
:1001C000FFFFFFFFFFFFFFFFFFFFFFFFFFFFFFFF3F
:1001D000FF6EDFFFFFFFFFFFFFFFFFFFFFFFFFFFE0
:1001E000FFFF0000F8FFFFFFFFFFFFFFFFFFEEFF35
:1001F000FFF7FFFFFFFFFFFFFFFFFFFFFFFFFFFF17
:100200000000F8FFFFFFFFFFFFFFFFFFFFFFFFFF03
:10021000FFFFFFFFFFFFFFFFFFFFFFFFFF7F00006C
:10022000F8FFFFFFFFFFFFFFFFFFFDFDFEFFFFFFEA
:10023000FFFFFFFFFFFFFFFFFF1F50F5A02AB90AD6
:10024000E0FFFFFFFFFFFFFFDFEFBBFFFFFFFFFF51
:10025000FFFFFFFFFFFFFF1FA2DEFFFFEF52E0FFE8
:10026000FFFFFFFFFFDFFBFFFFF7FFFFFFFFFFFFCA
:10027000FFFFFFFFFF1FA4BAFFFFBF05E0FFFFFF67
:10028000FFFFFFBF7FFFFFFFFFFFFFFFFFFFFFFF3E
:10029000FFFF8F9EDAFFFFFFEE7EA180FFFFFFFFD3
:1002A000FFFFDBDFFFFFFFFFFFFFFFFFFFFFFFFFA2
:1002B0008FF4FFFFFFFFFFFFBF82FFFFFFFFFFFF86
:1002C000FF7D77FFFFFFFFFFFFFFFFFFFFFF07FD42
:1002D000FFFFFFFFFFFF5F80FFFFFFFFFFBFBFFFCD
:1002E000FFF7FFFFFFFFFFFFFFFFFFA74EEDFF4AF6
:1002F0000000A4FAFF57E1FFFFFFFF7FFBFFFFFFB6
:10030000FFFFFFFFFFFFFFFFFF03FBFF579502808B
:10031000A8DFFF7FE1FFFFFFFFFF7FF7FFFFFFFF8A
:10032000FFFFFFFFFFFFFF03FAFFFF550290AAFA4E
:10033000FF7FE3FFFFFFFFFFF7FFB6FFFFFFFFFFBA
:10034000FFFFFFFF4F65FF2B000000000000E8FFEC
:10035000B5F8FFFFFF7FFFEFFFFBFFFFFFFFFFFF92
:10036000FFFF0FFDFF5700000000000048FFFFF8EF
:10037000FFFFFFFFEEFEFFFFFFFFFFFFFFFFFFFF9F
:100380000FFD7F8B000000000000E8FF5FF8FFFF1B
:10039000FFFFFFFFFFEFFFFFFFFFFFFFFF7F0AF5FC
:1003A0004D0900000000000000A0FF35FCFFFFFF2A
:1003B000FFBFDDFFFFFFFFFFFFFFFF3FF4FF0B006D
:1003C00000000000000000D0FD2FFEFFFFBFDDFD9C
:1003D000FFFFFFFFFFFFFFFFFF3FF0FF07000000F1
:1003E000000000000080FF2FFCFFFFFFFFFB7FFFEE
:1003F000FFFFFFFFFFFFFF07FE0B000000000000F4
:1004000000000000E07F03FFFFFFFFFFFFF7FFFF9B
:10041000FFFFFFFFFFC7FF1F0000000000000000FC
:100420000000A4FF0FFFFFFFDDBFFBFFFFFFFFFF8B
:10043000FFFFFFC7FE2B00000000000000000000CF
:10044000F0FF09FFFFFFFFFDFFFFFFFFFFFFBFFF03
:100450001FCA5F010000000000000000000000F85B
:100460005FF8FFFFFFFBBFF7FFFFFFFFFFFF0FFD81
:100470006F000000000000000000000000FA7FF89C
:10048000FFBFDD7FFFFFFFFFFFFFFFFF0FF95F00F3
:100490000000000000000000000000FAFFF8FFFF6D
:1004A000FFFFFBFFFFFFFFFFFFFB01FF0900000055
:1004B000000000000000000000807EC5FFFF7FF705
:1004C0007FFFFFFFFFFFFFFFE3FF010000000000D1
:1004D0000000000000000080FDCFFFFFFBFFFFEFEA
:1004E000FFFFFFFFFFFFB1FF05000000000000005D
:1004F0000000000000C0FEC7FF7FFFDFF7FFFFFF27
:10050000FFDFFFBFE22F000000000000000000003E
:1005100000000000E4BFFEFF7F7FFFFEFFFFFFFF44
:10052000FF3FFC370000000000000000000000005A
:100530000000E8BFFEFFFBFFFFFFFFFFFFFFFF3FE5
:10054000FC17000000000000000000000000000098
:10055000E87FFEFFF7FDF7FFFFFFFFFFFB576D256D
:10056000000000000000000000000000000000BFCC
:1005700005FFFFFFFFDDFFFFFFFFFF87FF0200001A
:1005800000000000000000000000000000FF0F7FDE
:10059000DF6FFFFFFFFFFFFFFFC7FF02000000004C
:1005A0000000000000000000000000FF05FFFFFF4A
:1005B000EFFFFFFFFFFFFFA85F000000000000004B
:1005C000000000000000000000E82FF8FDFEFFFF23
:1005D000FFFFFFFFFFF84F000000000000000000D9
:1005E00000000000000000F87FF8FFFFBEFFFFFFE3
:1005F000FFFFFFF03F0000000000000000000000CF
:100600000000000000E85FF8DFEFFFF7FFFFFFFFEB
:100610000FFB0900000000000000000000000000C7
:10062000000000807FF8FEFDFFFEFFFFFFFF1FFFC1
:100630000300000000000000000000000054010062
:100640000080FEFBFDFFFBFFFFFFFFFF1FFF05001C
:1006500000000000000000000000A0FB170000C028
:100660007FFDFFBFFFFFFF7FFFFF137F0100000043
:100670000000000000000000A4D65E000000FCCBDB
:10068000DFFDFFF7FFFFFFFFE33701000000000081
:10069000000000000000D8FFF7050000F4D7FBFFC2
:1006A000F7FFFFFFFFFFE37F0000000000000000F6
:1006B00000000000B5FEBF0D0000FCCFFFFFBFFF34
:1006C000FFFFFF3FE01700000000000000000000F7
:1006D0000080EEFFFF370000E037FEBBFFFFFFFFAB
:1006E000BF7FFC2F00000000000000000000004061
:1006F000FDFFFFFF0000E03FBCFFFFF7FFFFFF3FF4
:10070000F4170000000000000000000000A0FFFF40
:10071000FFBF0100E03FFEFFFBFFFFFFFF7FEC0696
:100720000000000000000000000000A0EEFFFFFF3E
:10073000030000FFE0FF7FFFFFFFFF7FFF050000DA
:10074000000000000000000000E8FFFFFFFF0500C0
:1007500080FFF1DDFFFFFFFFFFFFFC030000000053
:1007600000000000000000A0FFFFFFFF070000FFE7
:10077000E1FFF7FFFFFFFF47BF00000000000000A0
:100780000000000000F8FFFFFFFF0F0000BCF1FFBA
:10079000FFFDFFFFFF8FFF000000000000000000D2
:1007A000000000D0FFFFFFFF1F0000F9EF7FFFF701
:1007B000FFFFFFA7BF0000000000000000000000D6
:1007C00000FAFFFFFFFF170000FAF5FFFFFFFFFF32
:1007D000FFA83F000000000000000000000000EA49
:1007E000FFFFFFFF7F0000E81FFFEFFFFFFFFFF0AD
:1007F0000F000000000000000000000000FDFFFFEF
:10080000FFFFBF0000D8CFFFFFFFFFFFFFF01F007B
:100810000000000000000000000000FAFFFFFFFFE2
:10082000FF0100D81FFFFFFFFFFFFFF80B000000D4
:10083000000000000000000040FFFFFFFFFFFF027C
:1008400000E0AFF8FFFBFFFFFFF50B00000000002A
:1008500000000000000000FDFFFFFFFFFF07008019
:100860007FF8FFFFFFFFFFFA0B0000000000000011
:1008700000000000C0FEFFFFFFFFFF0300C07FF885
:10088000FFFFFFFF3FF70300000000000000000033
:10089000000080FEFFFFFFFFFF0F00807EF8FFFFDC
:1008A000FFFF1F7E010000000000000000000000AC
:1008B000D0FFFFFFBFFDFF1F0080FEFAFFFFFFFF1D
:1008C0001FFE03000000000000000000000050FFB9
:1008D000FFFFB7F5FF1F0040FDFAFFFFBFFF9F7F3F
:1008E000010000000000000000000000E0FFFFFF2A
:1008F0005FD5FF5F0000FECAFFFFFFFF7F7F0000A4
:1009000000000000000000000000A8FFFFFFB5127B
:10091000FF3F0000FC87FFFFFFFF5FBF01000000FB
:100920000000000000000000F8FFFF7F1740FD7F7F
:100930000000FCC3FFFFFFFF633F0000000000005A
:10094000000000000000E2FFFF7FA500FAFF0000AA
:10095000E8C7FFFFFFFFE33F0000000000000000CA
:1009600000000000FCFFFFAF0200EC7F0000F4D7A6
:10097000FFFFFFFFC33F0000000000000000000079
:100980000000F4FFFFBF0200E8FF0100E4D7FFFF13
:10099000FFFFE3270000000000000000000000004F
:1009A000FDFFFFAF0000B8FF0000F057FEFFFFFFA4
:1009B000EF1F000000000000000000000000FAFF30
:1009C000FF5F0000E0FF0300E03FFCFFFFFFEB27BD
:1009D000000000000000000000000080FDFFFF2F6D
:1009E000000040FF0100E03FFCFFFF7FEC0F000034
:1009F00000000000000000000000FBFFFF5F00009F
:100A000040FF0700A03FFCFFFF7FFC070000000045
:100A100000000000000000A0FEFFFF2F0000C0FF4C
:100A20000B00403FFEFFFF7FFC07000000000000BE
:100A30000000000000A0FEFFFF1F000080FE0F006E
:100A400060BFFCFFFF7FEC0600000000000000001C
:100A5000000000C8FFFFFF3F000000FF1700803FBD
:100A6000FEFFFF7FFC05000000000000000000000A
:100A70000090FEFFFF7F000000FD1F0000FFFEFF53
:100A8000FF7FFC060000000000000000000000D412
:100A9000FFFFFF5F010000FF2F0000BFFFFFFFFF10
:100AA000FC01000000000000000000000054FFFFF7
:100AB000FFFF000000FC1F0000FFF6FFFF7FFF00AC
:100AC0000000000000000000000000F4FFFFFF7FB6
:100AD000030000FE3F0000FDE1FFFF7FFD0100007D
:100AE000000000000000000000D4FFFFFFFF060030
:100AF00000FA3F0000FFE1FFFF8FFF000000000051
:100B000000000000000000FDFFFFFFFF0B0000FCE5
:100B1000BF0000FAE1FFFF8FFF00000000000000AF
:100B20000000000000F5FFFFFFFF1F0000FA7F003C
:100B300000FAE3FFFF87FF00000000000000000054
:100B4000000000FEFFFFFFFF0B0000FCBF0000FAEB
:100B5000F5FFFF0FBF0000000000000000000000D4
:100B600000FAFFFFFFFF7F0000F87F0000FAE3FFBD
:100B7000FF87DF000000000000000000000080FF91
:100B8000FFFFFFFF2F0000FCBF0000F8FFFFFF8FFB
:100B90005F000000000000000000000000FAFFFFFE
:100BA000FFFFFF0100F8FF0000F8EBFFFF8FDF0001
:100BB0000000000000000000000080FFFFFFFFFFBA
:100BC000BF0200FC7F0100F8FDFFFFAF1F00000027
:100BD000000000000000000000FDFFFFFFFFFF0518
:100BE00000F8FF0100F00FFFFFCF5F0000000000E2
:100BF00000000000000040FFFFFFFFFF7F0B00FC34
:100C0000FF0000F80BFFFF9F5F00000000000000E6
:100C10000000000080FEFFFFFFFFFF0F00F8FF0154
:100C200000F00FFEFFEF1F000000000000000000BA
:100C30000000C0FFFFFFFFFFFF0B00FCFF0200D81A
:100C40000FFFFFBF1F0000000000000000000000B9
:100C500000FDFFFFFFFFFF1F00F8FF0100D01FFF97
:100C6000FFE81F0000000000000000000000C0FFBF
:100C7000FFFFFFFFFF2F00FCFF0200F80FFFFFF157
:100C80001F000000000000000000000080FEFFFFC9
:100C9000FFFFFF1F00F8FF0100C81FFFFFB00F009C
:100CA00000000000000000000000E0FFFFFFFFFF69
:100CB000FF1F00FCFF0300D00FFFFFF01F0000002C
:100CC000000000000000000040FFFFFFFFFFFF3FAB
:100CD00000F8FF0300B01FFFFFF00F00000000004E
:100CE000000000000000A0FFFFFFFFFFFF5F00FC0F
:100CF000FF0100C01FFFFFF01F0000000000000008
:100D00000000000040FDFFFFFFFFFF3F00FCFF036E
:100D100000903FFFFFF00B0000000000000000000B
:100D20000000D0FFFFFFFFFFFF3F00FEFF0100D0EC
:100D30009FFFFFF00F000000000000000000000017
:100D400040FFFFFFFFFFFF3F00FCFF0300803FFF6E
:100D5000FFF01B0000000000000000000000D0FDBC
:100D6000FFFFFFFFFF3F00FEFF0100D05FFFFFF12D
:100D70000F000000000000000000000090FFFFFFD7
:100D8000FFFFFF3F00FEFF0300805FFFFFF01B003F
:100D900000000000000000000000E0FEFFFFFFFF79
:100DA000FF7F00FFFF0100C0BFFFFFF10B0000004D
:100DB000000000000000000080FFFFFFFFFFFF7F3A
:100DC00000FEFF0300807FFFFFF00F000000000027
:100DD000000000000000F0FEFFFFFFFFFF3F00FFEC
:100DE000FF0300805FFFFFF30B0000000000000026
:100DF0000000000080FFFFFFFFFFFF7F00FFFF03F9
:100E000000807FFFFFF80F000000000000000000DE
:100E10000000F0FFFFFFFFFFFF3F80FFFF010080AA
:100E2000DFFFFFF10B0000000000000000000000E9
:100E3000A0FEFFFFFFFFFF3F80FFFF0300807FFF5B
:100E4000FFF40B0000000000000000000000D0FFD5
:100E5000FFFFFFFFFF3FC0FFFF010080DFFFFFF14B
:100E60000B0000000000000000000000A0FFFFFFDA
:100E7000FFFFFF7F80FFFF0300807FFFFFF40B0079
:100E800000000000000000000000D0FFFFFFFFFF97
:100E9000FF3FC0FFFF010080DFFFFFF10B000000FC
:100EA0000000000000000000A0FFFFFFFFFFFF7F29
:100EB00080FFFF0100807FFFFFFA0B0000000000B1
:100EC000000000000000D0FFFFFFFFFFFF3FE0FF3A
:100ED000FF010080DFFFFFF10B00000000000000B9
:100EE00000000000A0FFFFFFFFFFFF3FC0FFFF016A
:100EF00000807FFFFFF40B000000000000000000F6
:100F00000000E8FFFFFFFFFFFF3FE0FFFF01008061
:100F1000DFFFFFF10B0000000000000000000000F8
:100F2000A0FFFFFFFFFFFF7FC0FFFF0100807FFFEB
:100F3000FFF4170000000000000000000000D0FFD8
:100F4000FFFFFFFFFF3FF0FFFF010080DFFFFFF12A
:100F50000F0000000000000000000000A0FFFFFFE5
:100F6000FFFFFF7FE0FFFF0100805FFFFFF4150040
:100F700000000000000000000000E8FFFFFFFFFF8E
:100F8000FF3FF0FFFF000080FFFFFFF10F000000B8
:100F90000000000000000000C8FFFFFFFFFFFF7F10
:100FA000F0FFFF0100805FFFFFF00B00000000007A
:100FB000000000000000F0FFFFFFFFFFFF7FF8FFD1
:100FC000FF000080FFFFFFF10F00000000000000A5
:100FD00000000000A0FFFFFFFFFFFF7FF0FFFF0109
:100FE00000805FFFFFF01B00000000000000000019
:100FF0000000D0FFFFFFFFFFFF3FFCFFFF0000806E
:10100000BFFFFFF10F000000000000000000000023
:10101000D0FFFFFFFFFFFF7FF4FFFF0100805FFFB6
:10102000FFF01B0000000000000000000000F0FFC7
:10103000FFFFFFFFFFBFFAFF7F0100A05FFFFFF090
:101040000F0000000000000000000000A0FFFFFFF4
:10105000FFFFFFFFFDFFFF000090BFFEFFF01F003E
:1010600000000000000000000000D0FFFFFFFFFFB5
:10107000FF7FFFFF7F0100C05FFFFFD00F00000078
:101080000000000000000000D0FFFFFFFFFFFFFF97
:10109000FFFFFF0000901FFEFFF81F000000000090
:1010A000000000000000F0FFFFFFFFFFFFFFFFFF59
:1010B0007F0100E05FFFFFBF0F00000000000000A5
:1010C00000000000C0FFFFFFFFFFFFFFFFFFFF006A
:1010D00000901FFEFFEF1F00000000000000000056
:1010E0000000E8FFFFFFFFFFFFFFFFFF7F0100E0C1
:1010F0001FFFFFBF0F000000000000000000000005
:10110000A0FFFFFFFFFFFFFFFFFFFF0000A01FFE8C
:10111000FFD79F0000000000000000000000D0FF8B
:10112000FFFFFFFFFFFFFFFF5F0000F01FFFFFAFAC
:101130001F0000000000000000000000A0FFFFFFF3
:10114000FFFFFFFFFFFFFF0000E01FFEFFD75F0074
:1011500000000000000000000000E0FFFFFFFFFFB4
:10116000FFFFFFFF5F0000F01FFEFF8F5F0000002A
:10117000000000000000000040FFFFFFFFFFFFFF36
:10118000FFFF5F0000D01FFEFFA75F000000000010
:10119000000000000000A0FFFFFFFFFFFFFFFFFFB8
:1011A0005F0000F05BFFFF8F7F0000000000000089
:1011B0000000000080FEFFFFFFFFFFFFFFFF3F007A
:1011C00000F0FBFFFF87FF000000000000000000B0
:1011D000000040FFFFFFFFFFFFFFFFFF170000F0D1
:1011E000EFFFFF8F5F000000000000000000000024
:1011F00000FDFFFFFFFFFFFFFFFF3F0000F0EBFFE1
:10120000FF87FF000000000000000000000040FF1A
:10121000FFFFFFFFFFFFFFFF170000F0EBFFFFFFE7
:10122000FE000000000000000000000000FAFFFFC8
:10123000FFFFFFFFFFFF1F0000F0EBFFFFFF7F003E
:101240000000000000000000000000EDFFFFFFFFB5
:10125000FFFFFFFF170000F0E3FFFFFFFE000000AD
:10126000000000000000000000FAFFFFFFFFFFFF8A
:10127000FFFF1F0000F0C3FFFF3FFD040000000060
:1012800000000000000000ECFFFFFFFFFFFFFFFF7A
:101290000B0000F0E3FFFF7FFD01000000000000F5
:1012A0000000000080F8FFFFFFFFFFFFFFFF1700B7
:1012B00000F0C3FFFFBFFE060000000000000000BA
:1012C000000000EAFFFFFFFFFFFFFFFF0B000070C1
:1012D000E3FFFF3FFC0700000000000000000000EB
:1012E00000D4FFFFFFFFFFFFFFFF0B0000F0C2FF76
:1012F000FF3FFC050000000000000000000000F8B7
:10130000FFFFFFFFFFFFFFFF05000070E1FFFF7F12
:10131000FC070000000000000000000000A0FFFF2C
:10132000FFFFFFFFFFFF07000070FFFFFFFFF70752
:101330000000000000000000000000D8FFFFFFFFD9
:10134000FFFFFFFF02000070FDFFFFFFF707000037
:1013500000000000000000000050FFFFFFFFFFFF43
:10136000FFFF02000070FCFFFFFFFB2700000000F2
:1013700000000000000000E0FFFFFFFFFFFFFFFF95
:1013800002000030FCFFFFFFE32F00000000000020
:10139000000000000080FEFFFFFFFFFFFFFF0000D6
:1013A0000070FCFFFFFFF1370000000000000000AC
:1013B000000000D0FFFFFFFFFFFFFFBF000000B0F5
:1013C000FCFFFFFFE32F0000000000000000000012
:1013D0000000FDFFFFFFFFFFFFFF000000F0FFFF29
:1013E000FFFF613F0000000000000000000000A0BF
:1013F000FFFFFFFFFFFFFF3F000000D0FFFFFFFFE9
:10140000E13F000000000000000000000000FAFFC3
:10141000FFFFFFFFFFFF000000A0FFFFFFFF613F96
:10142000000000000000000000000080FFFFFFFF40
:10143000FFFFFF1F00000080FFFFFFFF1F7F010075
:1014400000000000000000000000EAFFFFFFFFFFB7
:10145000FF7F00000080FFFFFFFF5FFF0100000033
:101460000000000000000000FEFFFFFFFFFFFF2F55
:1014700000000088FFFFFFFF1F7F01000000000049
:10148000000000000000A8FFFFFFFFFFFF3F00007B
:1014900000FCFFFFFFFF0FFB010000000000000049
:1014A00000000000E8FFFFFFFFFFFF2F000000FA31
:1014B000FFFFFFFF0FFF030000000000000000001F
:1014C000000048FDFFFFFFFFFF1F000000F5FFFFCA
:1014D000FFFF1FFA090000000000000000000000EC
:1014E000A0FFFFFFFFFFFF17000080F0FFFFFFFFDF
:1014F000FFF80F000000000000000000000020FACC
:10150000FFFFFFFFFF170000C0F1FFFFFFFFFFF825
:101510000F000000000000000000000080FDFFFF41
:10152000FFFFFF070000E0F8FFFFFFFFFFF80D00DF
:101530000000000000000000000000E9FFFFFFFFC6
:10154000FF0F0000B0FFFFFFFFFFFFD72F000000DD
:10155000000000000000000000FAFFFFFFFFFF0591
:10156000000078FFFFFFFFFFFFD72F000000000003
:1015700000000000000000A8FFFFFFFFFF050000C3
:101580005CFFFFFFFFFFFFEF5F00000000000000B7
:101590000000000000F0FFFFFFFFFF0200001EFE42
:1015A000FFFFFFFFFF877F0000000000000000003A
:1015B000000000A0FEFFFFFFFF0200001FFEFFFF74
:1015C000FFFFFFC77E0100000000000000000000D8
:1015D00000A0FFFFFFFFBF0000801FFFFFFFFFFF16
:1015E000FFC7FF0000000000000000000000002016
:1015F000FDFFFFFF7F0000C0E3FFFFFFFFFFFF1FB6
:10160000FC03000000000000000000000080FEFF5E
:10161000FFFF2F0000E0E3FFFFFFFFFFFF3FFC03A2
:10162000000000000000000000000000FAFFFFFFC3
:101630003F0000F0C7FFFFFFFFFFFF3FFE0300007A
:1016400000000000000000000000FDFFFFFF0B0095
:101650000078FDFFFFFFFFFFFFFFE11F000000001C
:101660000000000000000000E8FFFFFF1700007C02
:10167000FDFFFFFFFFFFFFFFF51F00000000000060
:10168000000000000000FAFFFF7F0B0000FEFEFFDD
:10169000FFFFFFFFFFFFE31F00000000000000004E
:1016A0000000000050FFFFFF0300005FF8FFFFFF96
:1016B000FFFFFFFF5FBF0000000000000000000010
:1016C0000000E8FF6F7B0100803FFCFFFFFFFFFF92
:1016D000FFFFBFFF0000000000000000000000004E
:1016E00040FDFFEF0200C07FF8FFFFFFFFFFFFFF9D
:1016F000EFFF01000000000000000000000040DFDC
:10170000EEBE0000E087FFFFFFFFFFFFFFFF0FFAC5
:1017100003000000000000000000000040FADDB5FA
:101720000000F087FFFFFFFFFFFFFFFF0FFF0D002F
:101730000000000000000000000000AD772F000056
:10174000F885FFFFFFFFFFFFFFFF0FFA0700000014
:1017500000000000000000000074D52A0000FCD04A
:10176000FFFFFFFFFFFFFFFF6FEC0F000000000017
:1017700000000000000000945A150000FEF0FFFF7A
:10178000FFFFFFFFFFFF7FD87F0000000000000089
:101790000000000000A0AA020000FFF1FFFFFFFF11
:1017A000FFFFFFFF7FE87F00000000000000000057
:1017B00000000010490000801FFEFFFFFFFFFFFF39
:1017C000FFFFFF82FE00000000000000000000009C
:1017D0000000880000C01FFEFFFFFFFFFFFFFFFFAC
:1017E000FF43FF0300000000000000000000008035
:1017F000000000E01FFEFFFFFFFFFFFFFFFFFF8372
:10180000FE070000000000000000000000000000D3
:1018100000F0C3FFFFFFFFFFFFFFFFFFFFEFF91B1C
:10182000000000000000000000000000000000F8C0
:10183000E3FFFFFFFFFFFFFFFFFFFFFFF17F000060
:10184000000000000000000000000000007CC3FF5A
:10185000FFFFFFFFFFFFFFFFFFFFF5DF00000000BE
:1018600000000000000000000000805FFCFFFFFFA0
:10187000FFFFFFFFFFFFFFFF8DBF00000000000024
:101880000000000000000000F87FF8FFFFFFFFFFEE
:10189000FFFFFFFFFFFF8FFF0700000000000000B9
:1018A000000000000000F85FFCFFFFFFFFFFFFFFEC
:1018B000FFFFFFFF8FFF0F0000000000000000008F
:1018C000000000A0FF82FDFFFFFFFFFFFFFFFFFF03
:1018D000FFFF2FFC270000000000000000000000B8
:1018E00000D0FF85FFFFFFFFFFFFFFFFFFFFFFFFB0
:1018F0007FE87F010000000000000000000000A061
:10190000FF85FFFFFFFFFFFFFFFFFFFFFFFF7FF8E8
:10191000FF010000000000000000000000FF1FDECB
:10192000FFFFFFFFFFFFFFFFFFFFFFFF7F54FF01F0
:101930000000000000000000000040FD3FFEFFFF2F
:10194000FFFFFFFFFFFFFFFFFFFFFF1FFE5F000026
:10195000000000000000000000FF1FFFFFFFFFFF6E
:10196000FFFFFFFFFFFFFFFFFF3FFAFF0000000048
:10197000000000000000F4FF40FFFFFFFFFFFFFF3B
:10198000FFFFFFFFFFFFFF5FED5F000000000000B3
:1019900000000000FE7FC3FFFFFFFFFFFFFFFFFF10
:1019A000FFFFFFFFFFFF80FF2F000000000000008F
:1019B0000080F87FC1FFFFFFFFFFFFFFFFFFFFFF7A
:1019C000FFFFFFFFD0FFFF0000000000000000BA93
:1019D000FF8AF7FFFFFFFFFFFFFFFFFFFFFFFFFF94
:1019E000FFFF40FDB70000000000000040F6FF8749
:1019F000FFFFFFFFFFFFFFFFFFFFFFFFFFFFFFFFF7
:101A00003FE0FF2B00000000000000FAFF85FFFF11
:101A1000FFFFFFFFFFFFFFFFFFFFFFFFFFFF3F6431
:101A2000FFFF070000000020F5FF17AEFFFFFFFFDC
:101A3000FFFFFFFFFFFFFFFFFFFFFFFF7FA8FF7F0D
:101A40002500000000D0FFFF2BFEFFFFFFFFFFFF80
:101A5000FFFFFFFFFFFFFFFFFFFFFF1FA0FFBF4ACA
:101A600000000052FDFF0FFEFFFFFFFFFFFFFFFF23
:101A7000FFFFFFFFFFFFFFFFFF1FD8FFFFFFFFF785
:101A8000FFFFFF05F8FFFFFFFFFFFFFFFFFFFFFF67
:101A9000FFFFFFFFFFFFFF1F50FFFFFFDB5EFBFFAE
:101AA000FF0FF8FFFFFFFFFFFFFFFFFFFFFFFFFF3D
:101AB000FFFFFFFFFFFF3F80FAFFFEFBFFFFB715B1
:101AC000F8FFFFFFFFFFFFFFFFFFFFFFFFFFFFFF2D
:101AD000FFFFFFFF3F40DBFFFFFFFF5F02FEFFFF57
:101AE000FFFFFFFFFFFFFFFFFFFFFFFFFFFFFFFF06
:101AF000FFFF3FA0FEFFFFFFFFFB02FEFFFFFFFF18
:101B0000FFFFFFFFFFFFFFFFFFFFFFFFFFFFFFFFE5
:101B1000FFFE0700555555D706FEFFFFFFFFFFFFED
:101B2000FFFFFFFFFFFFFFFFFFFFFFFFFFFFFFFFC5
:101B30000720480A00F0FFFFFFFFFFFFFFFFFFFF46
:101B4000FFFFFFFFFFFFFFFFFFFFFFFFFFFF07009C
:101B5000495101F0FFFFFFFFFFFFFFFFFFFFFFFF06
:101B6000FFFFFFFFFFFFFFFFFFFFFFFF876A551625
:101B700004E0FFFFFFFFFFFFFFFFFFFFFFFFFFFF8F
:101B8000FFFFFFFFFFFFFFFFFFFFFFFFFFFFFFFF65
:101B9000FFFFFFFFFFFFFFFFFFFFFFFFFFFFFFFF55
:101BA000FFFFFFFFFFFFFFFFFFFFFFFFFFFFFFFF45
:101BB000FFFFFFFFFFFFFFFFFFFFFFFFFFFFFFFF35
:101BC000FFFFFFFFFFFFFFFFFFFFFFFFFFFFFFFF25
:101BD000FFFFFFFFFFFFFFFFFFFFFFFFFFFFFFFF15
:101BE000FFFFFFFFFFFFFFFFFFFFFFFFFFFFFFFF05
:101BF000FFFFFFFFFFFFFFFFFFFFFFFFFFFFFFFFF5
:101C0000FFFFFFFFFFFFFFFBFFFFFFFFFFFFFFFFE8
:101C1000FFFFFFFFFFFFFFFFFFFFFFFFFFFFFFFFD4
:101C2000FFFFFFFFFFFFFFFFFFFFFFFFFFFFFFFFC4
:101C3000FFFFFFFFFFFFFFFFFFFFFFFFFFFFFFFFB4
:101C4000FFFFFFFFFFFFFFFFFFFFFFFFFFFFFFFFA4
:101C5000FFFFFFFFFFFFFFFFFFFFFFFFFFFFFFFF94
:101C6000FFFFFFFFFFFFFFFFFFFFFFFFFFFFFFFF84
:101C7000FFFFFFFFFFFFFFFFFFFFFFFFFFFFFFFF74
:101C8000FFFFFFFFFFFFFFFFFFFFFFFFFFFFFFFF64
:101C9000FFFFFFFFFFFFFFFFFFFFFFFFFFFFFFFF54
:101CA000FFFFFFFFFFFFFFFFFFFF92AAAAAA6ADB69
:101CB000FEFFFFFFFFFFFFFFFFFFFFFFFFFFFFFF35
:101CC000FFFFFFFFFFFFFFFFAA52A5AA8A24010022
:101CD0000000495255D5F6FFFFFFFFFFFFFFFFFF52
:101CE000FFFFFFFFFFFFAAAA2AA934295555555522
:101CF0009212441200000000104955556DFFFFFF7D
:101D0000FFFFFFFFFFFFFFFFFFFFFFFFFFFFFFFFE3
:101D1000FFFFFFFFFFFFFFFFFFFFFFFFFFFFFFFFD3
:101D2000FFFFFFFFFFFFFFFFFFFFFFFFFFFFFFFFC3
:101D3000FFFFFFFFFFFFFFFFFFFFFFFFFFFFFFFFB3
:101D4000FFFFFFFFFFFFFFFFFDFFFFFFFFFFFFFFA5
:101D5000FFFFFFFFFFFFFFFFFFFFDEFFFFFFFFFFB4
:101D6000FFFFFFFFFFFFFFFFFFEFFFFFFFFFFFFF93
:101D7000FFFFFFFFFFFFFFFFFFEDFEFFFFFFFFFF86
:101D8000FFFFFFFFFFFFFFFFFFFFFFFFFFFFFFFF63
:101D9000FFFFFFFFFFFFFBFFEFFFFFFFFFFFFFFF67
:101DA000FFFFFFFFFFFFFFFFFFFFFFFFFFFFFFFF43
:101DB000FFFFFFFFDFFFFFFDFFFFFFFFFFFFFFFF55
:101DC000FFFFFFFFFFFFFFFFFFFFFFFFFFFFFFFF23
:101DD000FFBFFFFFFFFFFFFFFFFFFFFFFFFFFFFF53
:101DE000FFFFFFFFFFFFFFFFFFFFFFFFFFFFFFFF03
:101DF000FF6EDFFFFFFFFFFFFFFFFFFFFFFFFFFFA4
:101E0000FFFF0000F8FFFFFFFFFFFFFFFFFFEEFFF8
:101E1000FFF7FFFFFFFFFFFFFFFFFFFFFFFFFFFFDA
:101E20000000F8FFFFFFFFFFFFFFFFFFFFFFFFFFC7
:101E3000FFFFFFFFFFFFFFFFFFFFFFFFFF7F000030
:101E4000F8FFFFFFFFFFFFFFFFFFFDFDFEFFFFFFAE
:101E5000FFFFFFFFFFFFFFFFFF1F50F5A02AB90A9A
:101E6000E0FFFFFFFFFFFFFFDFEFBBFFFFFFFFFF15
:101E7000FFFFFFFFFFFFFF1FA2DEFFFFEF52E0FFAC
:101E8000FFFFFFFFFFDFFBFFFFF7FFFFFFFFFFFF8E
:101E9000FFFFFFFFFF1FA4BAFFFFBF05E0FFFFFF2B
:101EA000FFFFFFBF7FFFFFFFFFFFFFFFFFFFFFFF02
:101EB000FFFF8F9EDAFFFFFFEE7EA180FFFFFFFF97
:101EC000FFFFDBDFFFFFFFFFFFFFFFFFFFFFFFFF66
:101ED0008FF4FFFFFFFFFFFFBF82FFFFFFFFFFFF4A
:101EE000FF7D77FFFFFFFFFFFFFFFFFFFFFF07FD06
:101EF000FFFFFFFFFFFF5F80FFFFFFFFFFBFBFFF91
:101F0000FFF7FFFFFFFFFFFFFFFFFFA74EEDFF4AB9
:101F10000000A4FAFF57E1FFFFFFFF7FFBFFFFFF79
:101F2000FFFFFFFFFFFFFFFFFF03FBFF579502804F
:101F3000A8DFFF7FE1FFFFFFFFFF7FF7FFFFFFFF4E
:101F4000FFFFFFFFFFFFFF03FAFFFF550290AAFA12
:101F5000FF7FE3FFFFFFFFFFF7FFB6FFFFFFFFFF7E
:101F6000FFFFFFFF4F65FF2B000000000000E8FFB0
:101F7000B5F8FFFFFF7FFFEFFFFBFFFFFFFFFFFF56
:101F8000FFFF0FFDFF5700000000000048FFFFF8B3
:101F9000FFFFFFFFEEFEFFFFFFFFFFFFFFFFFFFF63
:101FA0000FFD7F8B000000000000E8FF5FF8FFFFDF
:101FB000FFFFFFFFFFEFFFFFFFFFFFFFFF7F0AF5C0
:101FC0004D0900000000000000A0FF35FCFFFFFFEE
:101FD000FFBFDDFFFFFFFFFFFFFFFF3FF4FF0B0031
:101FE00000000000000000D0FD2FFEFFFFBFDDFD60
:101FF000FFFFFFFFFFFFFFFFFF3FF0FF07000000B5
:10200000000000000080FF2FFCFFFFFFFFFB7FFFB1
:10201000FFFFFFFFFFFFFF07FE0B000000000000B7
:1020200000000000E07F03FFFFFFFFFFFFF7FFFF5F
:10203000FFFFFFFFFFC7FF1F0000000000000000C0
:102040000000A4FF0FFFFFFFDDBFFBFFFFFFFFFF4F
:10205000FFFFFFC7FE2B0000000000000000000093
:10206000F0FF09FFFFFFFFFDFFFFFFFFFFFFBFFFC7
:102070001FCA5F010000000000000000000000F81F
:102080005FF8FFFFFFFBBFF7FFFFFFFFFFFF0FFD45
:102090006F000000000000000000000000FA7FF860
:1020A000FFBFDD7FFFFFFFFFFFFFFFFF0FF95F00B7
:1020B0000000000000000000000000FAFFF8FFFF31
:1020C000FFFFFBFFFFFFFFFFFFFB01FF0900000019
:1020D000000000000000000000807EC5FFFF7FF7C9
:1020E0007FFFFFFFFFFFFFFFE3FF01000000000095
:1020F0000000000000000080FDCFFFFFFBFFFFEFAE
:10210000FFFFFFFFFFFFB1FF050000000000000020
:102110000000000000C0FEC7FF7FFFDFF7FFFFFFEA
:10212000FFDFFFBFE22F0000000000000000000002
:1021300000000000E4BFFEFF7F7FFFFEFFFFFFFF08
:10214000FF3FFC370000000000000000000000001E
:102150000000E8BFFEFFFBFFFFFFFFFFFFFFFF3FA9
:10216000FC1700000000000000000000000000005C
:10217000E87FFEFFF7FDF7FFFFFFFFFFFB576D2531
:10218000000000000000000000000000000000BF90
:1021900005FFFFFFFFDDFFFFFFFFFF87FF020000DE
:1021A00000000000000000000000000000FF0F7FA2
:1021B000DF6FFFFFFFFFFFFFFFC7FF020000000010
:1021C0000000000000000000000000FF05FFFFFF0E
:1021D000EFFFFFFFFFFFFFA85F000000000000000F
:1021E000000000000000000000E82FF8FDFEFFFFE7
:1021F000FFFFFFFFFFF84F0000000000000000009D
:1022000000000000000000F87FF8FFFFBEFFFFFFA6
:10221000FFFFFFF03F000000000000000000000092
:102220000000000000E85FF8DFEFFFF7FFFFFFFFAF
:102230000FFB09000000000000000000000000008B
:10224000000000807FF8FEFDFFFEFFFFFFFF1FFF85
:10225000030000000000000000000000000000007B
:102260000080FEFBFDFFFBFFFFFFFFFF1FFF0500E0
:10227000000000000000000000000000000000C09E
:102280007FFDFFBFFFFFFF7FFFFF137F0100000007
:102290000000000000550000000000000000FCCB22
:1022A000DFFDFFF7FFFFFFFFE33701000000000045
:1022B0000000E8FE0500000000000000F4D7FBFF6E
:1022C000F7FFFFFFFFFFE37F0000000000000000BA
:1022D000A9B51700000000000000FCCFFFFFBFFF02
:1022E000FFFFFF3FE0170000000000000000F6FFC6
:1022F0007D01000000000000E037FEBBFFFFFFFF94
:10230000BF7FFC2F0000000000000040ADFF6F0306
:10231000000000000000E03FBCFFFFF7FFFFFF3FB1
:10232000F41700000000000000A0FBFFFF0D0000FC
:1023300000000000E03FFEFFFBFFFFFFFF7FEC0619
:102340000000000000000050FFFFFF3F0000000001
:10235000000000FFE0FF7FFFFFFFFF7FFF050000A1
:102360000000000000E8FFFFFF6F00000000000019
:1023700080FFF1DDFFFFFFFFFFFFFC030000000017
:10238000000000A8FBFFFFFF00000000000000FFAE
:10239000E1FFF7FFFFFFFF47BF0000000000000064
:1023A00000FAFFFFFF7F01000000000000BCF1FF0A
:1023B000FFFDFFFFFF8FFF0000000000000000E8AE
:1023C000FFFFFFFF01000000000000F9EF7FFFF7B3
:1023D000FFFFFFA7BF0000000000000000FEFFFF9E
:1023E000FFFF03000000000000FAF5FFFFFFFFFF02
:1023F000FFA83F0000000000000000F4FFFFFFFF07
:1024000007000000000000E81FFFEFFFFFFFFFF0E4
:102410000F0000000000000080FEFFFFFFFF05002E
:102420000000000000D8CFFFFFFFFFFFFFF01F00FC
:1024300000000000000080FAFFFFFFFF1F00000007
:10244000000000D81FFFFFFFFFFFFFF80B00000098
:102450000000000040FFFFFFFFFF2F000000000012
:1024600000E0AFF8FFFBFFFFFFF50B0000000000EE
:10247000000080FEFFFFFFFF7F00000000000080E3
:102480007FF8FFFFFFFFFFFA0B00000000000000D5
:10249000D0FFFFFFFFFFBF000000000000C07FF87B
:1024A000FFFFFFFF3FF7030000000000000040FFB8
:1024B000FFFFFFFFFF010000000000807EF8FFFF2C
:1024C000FFFF1F7E0100000000000000B0FFFFFFC3
:1024D000FFFFFF00000000000080FEFAFFFFFFFF8B
:1024E0001FFE0300000000000000A0FFFFFFFFFF31
:1024F000FF03000000000040FDFAFFFFBFFF9F7FC9
:102500000100000000000000F4FFFFFF6FFFFF0765
:10251000000000000000FECAFFFFFFFF7F7F0000F9
:10252000000000000000D4FFFFFF6DFDFF0700006A
:1025300000000000FC87FFFFFFFF5FBF01000000FD
:1025400000000000F8FFFFFF57F5FF170000000034
:102550000000FCC3FFFFFFFF633F0000000000001E
:102560000000EAFFFF7FADC4FF0F00000000000085
:10257000E8C7FFFFFFFFE33F00000000000000008E
:10258000FEFFFFDF0550FF1F000000000000F4D732
:10259000FFFFFFFFC33F0000000000000080F8FFC6
:1025A000FF5F2980FE3F000000000000E4D7FFFF2E
:1025B000FFFFE3270000000000000000FFFFFFAB6B
:1025C0000000FB1F000000000000F057FEFFFFFFAF
:1025D000EF1F0000000000000000FDFFFFAF000043
:1025E000FA7F000000000000E03FFCFFFFFFEB2748
:1025F0000000000000000040FFFFFF2B0000EE3F46
:10260000000000000000E03FFCFFFF7FEC0F000037
:10261000000000000080FEFFFF170000F8FF000030
:1026200000000000A03FFCFFFF7FFC07000000004F
:1026300000000060FFFFFF0B0000D07F00000000E3
:102640000000403FFEFFFF7FFC070000000000008D
:1026500000C0FEFFFF170000D0FF010000000000D7
:1026600060BFFCFFFF7FEC0600000000000000A838
:10267000FFFFFF0B0000F0FF020000000000803FA2
:10268000FEFFFF7FFC0500000000000000A8FFFF28
:10269000FF070000A0FF03000000000000FFFEFF96
:1026A000FF7FFC0600000000000000F2FFFFFF0FAC
:1026B0000000C0FF05000000000000BFFFFFFFFF9B
:1026C000FC0100000000000000A4FFFFFF1F00004D
:1026D00040FF07000000000000FFF6FFFF7FFF0043
:1026E00000000000000000F5FFFFFF570000C0FFE2
:1026F0000B000000000000FDE1FFFF7FFD01000076
:102700000000000000D5FFFFFF3F000000FF0700B2
:102710000000000000FFE1FFFF8FFF00000000004D
:10272000000000FDFFFFFFDF000080FF0F00000042
:10273000000000FAE1FFFF8FFF0000000000000032
:1027400000F5FFFFFFBF010080FE0F00000000004A
:1027500000FAE3FFFF87FF0000000000000040FFD9
:10276000FFFFFFFF020000FF2F000000000000FA43
:10277000F5FFFF0FBF0000000000000040FDFFFF5D
:10278000FFFF070080FE1F000000000000FAE3FFCB
:10279000FF87DF0000000000000080FFFFFFFFFF59
:1027A000020000FF2F000000000000F8FFFFFF8F75
:1027B0005F0000000000000080FEFFFFFFFF1F0021
:1027C00000FE1F000000000000F8EBFFFF8FDF009D
:1027D000000000000000E0FFFFFFFFFF0B0000FF14
:1027E0002F000000000000F8FDFFFFAF1F000000F9
:1027F0000000000080FEFFFFFFFF7F0000FE3F00A3
:102800000000000000F00FFFFFCF5F00000000009D
:102810000000E0FFFFFFFFFFAF0000FF5F000000D0
:10282000000000F80BFFFF9F5F00000000000000A9
:1028300040FFFFFFFFFF7F0100FE7F000000000060
:1028400000F00FFEFFEF1F00000000000000D0FFAF
:10285000FFFFFFFFDF0200FF3F000000000000D885
:102860000FFFFFBF1F00000000000000A0FFFFFFE0
:10287000FFFFFF0300FE7F000000000000D01FFFED
:10288000FFE81F00000000000000F0FFFFFFFFFF57
:10289000FF0200FFBF000000000000F80FFFFFF183
:1028A0001F0000000000000040FFFFFFFFFFFF07C8
:1028B00000FE7F000000000000C81FFFFFB00F00F7
:1028C000000000000000F0FFFFFFFFFFFF0B00FF14
:1028D000BF000000000000D00FFFFFF01F0000004D
:1028E00000000000A0FFFFFFFFFFFF0700FE7F00CA
:1028F0000000000000B01FFFFFF00F00000000000C
:102900000000F8FFFFFFFFFFFF0700FFFF000000D0
:10291000000000C01FFFFFF01F00000000000000CB
:10292000D0FFFFFFFFFFFF0F00FEFF0000000000D1
:1029300000903FFFFFF00B00000000000000E8FFE8
:10294000FFFFFFFFFF1700FF7F000000000000D027
:102950009FFFFFF00F0000000000000050FFFFFF8E
:10296000FFFFFF0F00FFFF000000000000803FFF9F
:10297000FFF01B00000000000000F4FFFFFFFFFF5E
:10298000FF0F80FF7F000000000000D05FFFFFF11D
:102990000F00000000000000D0FFFFFFFFFFFF0F4F
:1029A00000FFFF000000000000805FFFFFF01B0041
:1029B00000000000000074FFFFFFFFFFFF0F80FF1B
:1029C0007F000000000000C0BFFFFFF10B0000000F
:1029D00000000000E4FFFFFFFFFFFF0F80FFFF008C
:1029E0000000000000807FFFFFF00F0000000000EB
:1029F0000000B8FFFFFFFFFFFF1FC0FF7F000000C8
:102A0000000000805FFFFFF30B00000000000000EB
:102A1000E0FFFFFFFFFFFF1F80FFFF00000000003F
:102A200000807FFFFFF80F00000000000000BCFFE7
:102A3000FFFFFFFFFF0FC0FFFF000000000000804E
:102A4000DFFFFFF10B00000000000000E0FFFFFFD0
:102A5000FFFFFF1FC0FFFF000000000000807FFF9E
:102A6000FFF40B00000000000000FCFFFFFFFFFF71
:102A7000FF0FE0FF7F00000000000080DFFFFFF19C
:102A80000B00000000000000A8FFFFFFFFFFFF0F8A
:102A9000E0FFFF000000000000807FFFFFF40B005C
:102AA000000000000000F4FFFFFFFFFFFF0FF0FF3A
:102AB0007F00000000000080DFFFFFF10B0000003E
:102AC00000000000E8FFFFFFFFFFFF1FE0FFFF0027
:102AD0000000000000807FFFFFFA0B0000000000F4
:102AE0000000F4FFFFFFFFFFFF0FF0FF7F0000007B
:102AF00000000080DFFFFFF10B000000000000007D
:102B0000E8FFFFFFFFFFFF1FE0FF7F000000000066
:102B100000807FFFFFF40B00000000000000F4FFC6
:102B2000FFFFFFFFFF0FF8FF7F00000000000080A5
:102B3000DFFFFFF10B00000000000000E8FFFFFFD7
:102B4000FFFFFF0FF0FF7F000000000000807FFF0D
:102B5000FFF41700000000000000FAFFFFFFFFFF76
:102B6000FF0FF8FF7F00000000000080DFFFFFF193
:102B70000F00000000000000E8FFFFFFFFFFFF1F45
:102B8000F0FF7F000000000000805FFFFFF41500F1
:102B9000000000000000F4FFFFFFFFFFFF0FFCFF3D
:102BA0007F00000000000080FFFFFFF10F00000029
:102BB00000000000E8FFFFFFFFFFFF1FF8FF7F009E
:102BC0000000000000805FFFFFF00B00000000002D
:102BD0000000FAFFFFFFFFFFFF0FFCFF3F000000B8
:102BE00000000080FFFFFFF10F0000000000000068
:102BF000F2FFFFFFFFFFFF1FFCFF7F000000000050
:102C000000805FFFFFF01B00000000000000FCFFE1
:102C1000FFFFFFFFFF1FFEFF3F00000000000080DE
:102C2000BFFFFFF10F00000000000000E8FFFFFF02
:102C3000FFFFFF1FFCFF7F000000000000805FFF20
:102C4000FFF01B00000000000000F4FFFFFFFFFF8B
:102C5000FF0FFFFF3F000000000000A05FFFFFF03C
:102C60000F00000000000000F4FFFFFFFFFFFF1F48
:102C7000FDFF7F00000000000090BFFEFFF01F007E
:102C8000000000000000FCFFFFFFFFFFFFAFFEFFA2
:102C90005F000000000000C05FFFFFD00F000000D9
:102CA00000000000E8FFFFFFFFFFFF7FFFFF3F0086
:102CB0000000000000901FFEFFF81F000000000051
:102CC0000000F4FFFFFFFFFFFFDFFFFF5F000000DA
:102CD000000000E05FFFFFBF0F00000000000000E9
:102CE000F4FFFFFFFFFFFFFFFFFF3F0000000000BA
:102CF00000901FFEFFEF1F00000000000000FCFF1F
:102D0000FFFFFFFFFFFFFFFF5F000000000000E08C
:102D10001FFFFFBF0F00000000000000F0FFFFFFDB
:102D2000FFFFFFFFFFFF3F000000000000A01FFEAD
:102D3000FFD79F00000000000000FAFFFFFFFFFF29
:102D4000FFFFFFFF5F000000000000F01FFFFFAF6C
:102D50001F00000000000000E8FFFFFFFFFFFFFF73
:102D6000FFFF3F000000000000E01FFEFFD75F00F4
:102D7000000000000000F4FFFFFFFFFFFFFFFFFF68
:102D800017000000000000F01FFEFF8F5F00000032
:102D900000000000E8FFFFFFFFFFFFFFFFFF3F0015
:102DA0000000000000D01FFEFFA75F000000000031
:102DB0000000F8FFFFFFFFFFFFFFFFFF170000000D
:102DC000000000F05BFFFF8F7F00000000000000AC
:102DD000D0FFFFFFFFFFFFFFFFFF17000000000015
:102DE00000F0FBFFFF87FF00000000000000E8FF8D
:102DF000FFFFFFFFFFFFFFFF17000000000000F0D4
:102E0000EFFFFF8F5F00000000000000A0FFFFFF4A
:102E1000FFFFFFFFFFFF0F000000000000F0EBFFCF
:102E2000FF87FF00000000000000D0FFFFFFFFFF52
:102E3000FFFFFFFF05000000000000F0EBFFFFFFB9
:102E4000FE0000000000000040FFFFFFFFFFFFFF4B
:102E5000FFFF0F000000000000F0EBFFFFFF7F000E
:102E6000000000000000D0FFFFFFFFFFFFFFFFFF9B
:102E700005000000000000F0E3FFFFFFFE0000007F
:102E80000000000080FEFFFFFFFFFFFFFFFF0700C5
:102E90000000000000F0C3FFFF3FFD040000000041
:102EA000000040FBFFFFFFFFFFFFFFFF05000000EA
:102EB000000000F0E3FFFF7FFD01000000000000C4
:102EC00080FEFFFFFFFFFFFFFFFF07000000000085
:102ED00000F0C3FFFFBFFE0600000000000000FB83
:102EE000FFFFFFFFFFFFFFFF020000000000007078
:102EF000E3FFFF3FFC0700000000000020FEFFFF93
:102F0000FFFFFFFFFFFF05000000000000F0C2FF11
:102F1000FF3FFC0500000000000080FAFFFFFFFFFC
:102F2000FFFFFFFF0200000000000070E1FFFF7FD5
:102F3000FC0700000000000000F5FFFFFFFFFFFF9F
:102F4000FFFF0200000000000070FFFFFFFFF70717
:102F500000000000000000FEFFFFFFFFFFFFFF7FFB
:102F60000100000000000070FDFFFFFFF7070000F8
:102F70000000000000E8FFFFFFFFFFFFFFFF010070
:102F8000000000000070FCFFFFFFFB2700000000B6
:102F9000000000F6FFFFFFFFFFFFFFBF0000000083
:102FA00000000030FCFFFFFFE32F000000000000E6
:102FB00000D4FFFFFFFFFFFFFFBF00000000000085
:102FC0000070FCFFFFFFF13700000000000000F878
:102FD000FFFFFFFFFFFFFFBF00000000000000B089
:102FE000FCFFFFFFE32F00000000000000A0FFFF38
:102FF000FFFFFFFFFF3F00000000000000F0FFFFA9
:10300000FFFF613F00000000000000F4FFFFFFFF32
:10301000FFFFFF2F00000000000000D0FFFFFFFFB8
:10302000E13F0000000000000040FFFFFFFFFFFF46
:10303000FF3F00000000000000A0FFFFFFFF613F16
:1030400000000000000000E8FFFFFFFFFFFFFF0F90
:103050000000000000000080FFFFFFFF1F7F010055
:10306000000000000080FEFFFFFFFFFFFF3F0000A9
:10307000000000000080FFFFFFFF5FFF0100000075
:10308000000000E0FFFFFFFFFFFFFF070000000060
:1030900000000088FFFFFFFF1F7F0100000000000D
:1030A0000080FAFFFFFFFFFFFF1F0000000000008D
:1030B00000FCFFFFFFFF0FFB01000000000000808D
:1030C000FFFFFFFFFFFFFF0B00000000000000FA02
:1030D000FFFFFFFF0FFF0300000000000000EAFFFA
:1030E000FFFFFFFFFF0F00000000000000F5FFFFE3
:1030F000FFFF1FFA0900000000000000FAFFFFFFB9
:10310000FFFFFF0B00000000000080F0FFFFFFFF4B
:10311000FFF80F0000000000000052FFFFFFFFFF5C
:10312000FF07000000000000C0F1FFFFFFFFFFF8F5
:103130000F00000000000000E8FFFFFFFFFFFF0599
:10314000000000000000E0F8FFFFFFFFFFF80D00A7
:1031500000000000000088FEFFFFFFFFFF050000E9
:1031600000000000B0FFFFFFFFFFFFD72F000000AF
:103170000000000060FFFFFFFFFFFF0100000000F4
:10318000000078FFFFFFFFFFFFD72F0000000000C7
:10319000000040FAFFFFFFFFFF03000000000000F7
:1031A0005CFFFFFFFFFFFFEF5F000000000000007B
:1031B00080FEFFFFFFFF7F010000000000001EFEF9
:1031C000FFFFFFFFFF877F0000000000000000EA14
:1031D000FFFFFFFF7F010000000000001FFEFFFF58
:1031E000FFFFFFC77E0100000000000000FCFFFFA2
:1031F000FFFFBF000000000000801FFFFFFFFFFF78
:10320000FFC7FF0000000000000000A8FFFFFFFF55
:10321000BF000000000000C0E3FFFFFFFFFFFF1F33
:10322000FC0300000000000000E8FFFFFFFF2F008C
:103230000000000000E0E3FFFFFFFFFFFF3FFC0393
:103240000000000000000048FFFFFFFF1F0000001B
:10325000000000F0C7FFFFFFFFFFFF3FFE0300007D
:103260000000000000A0FFFFFFFF0B0000000000B7
:103270000078FDFFFFFFFFFFFFFFE11F00000000E0
:1032800000000080FEFFFFFF0F0000000000007C38
:10329000FDFFFFFFFFFFFFFFF51F00000000000024
:1032A0000040FFFFFFFF02000000000000FEFEFFE5
:1032B000FFFFFFFFFFFFE31F000000000000000012
:1032C000FAFFFFFF050000000000005FF8FFFFFFAE
:1032D000FFFFFFFF5FBF0000000000000080FEFF57
:1032E000FFDF020000000000803FFCFFFFFFFFFF48
:1032F000FFFFBFFF0000000000000000D4FFFFFF41
:10330000000000000000C07FF8FFFFFFFFFFFFFF8D
:10331000EFFF0100000000000000FAFFDB5E00008C
:1033200000000000E087FFFFFFFFFFFFFFFF0FFA35
:10333000030000000000000050FFFFBB0000000081
:103340000000F087FFFFFFFFFFFFFFFF0FFF0D00F3
:10335000000000000000D0B7BB2F000000000000FC
:10336000F885FFFFFFFFFFFFFFFF0FFA07000000D8
:1033700000000000907E772D000000000000FCD0CF
:10338000FFFFFFFFFFFFFFFF6FEC0F0000000000DB
:10339000000040EBDD0B000000000000FEF0FFFF2E
:1033A000FFFFFFFFFFFF7FD87F000000000000004D
:1033B000005DB50A000000000000FFF1FFFFFFFF05
:1033C000FFFFFFFF7FE87F0000000000000000A576
:1033D00056050000000000801FFEFFFFFFFFFFFFFB
:1033E000FFFFFF82FE0000000000000000A8AA000E
:1033F0000000000000C01FFEFFFFFFFFFFFFFFFFF8
:10340000FF43FF0300000000000000441200000022
:10341000000000E01FFEFFFFFFFFFFFFFFFFFF8335
:10342000FE07000000000000000022000000000075
:1034300000F0C3FFFFFFFFFFFFFFFFFFFFEFF91BE0
:10344000000000000000002000000000000000F864
:10345000E3FFFFFFFFFFFFFFFFFFFFFFF17F000024
:10346000000000000000000000000000007CC3FF1E
:10347000FFFFFFFFFFFFFFFFFFFFF5DF0000000082
:1034800000000000000000000000805FFCFFFFFF64
:10349000FFFFFFFFFFFFFFFF8DBF000000000000E8
:1034A0000000000000000000F87FF8FFFFFFFFFFB2
:1034B000FFFFFFFFFFFF8FFF07000000000000007D
:1034C000000000000000F85FFCFFFFFFFFFFFFFFB0
:1034D000FFFFFFFF8FFF0F00000000000000000053
:1034E000000000A0FF82FDFFFFFFFFFFFFFFFFFFC7
:1034F000FFFF2FFC2700000000000000000000007C
:1035000000D0FF85FFFFFFFFFFFFFFFFFFFFFFFF73
:103510007FE87F010000000000000000000000A024
:10352000FF85FFFFFFFFFFFFFFFFFFFFFFFF7FF8AC
:10353000FF010000000000000000000000FF1FDE8F
:10354000FFFFFFFFFFFFFFFFFFFFFFFF7F54FF01B4
:103550000000000000000000000040FD3FFEFFFFF3
:10356000FFFFFFFFFFFFFFFFFFFFFF1FFE5F0000EA
:10357000000000000000000000FF1FFFFFFFFFFF32
:10358000FFFFFFFFFFFFFFFFFF3FFAFF000000000C
:10359000000000000000F4FF40FFFFFFFFFFFFFFFF
:1035A000FFFFFFFFFFFFFF5FED5F00000000000077
:1035B00000000000FE7FC3FFFFFFFFFFFFFFFFFFD4
:1035C000FFFFFFFFFFFF80FF2F0000000000000053
:1035D0000080F87FC1FFFFFFFFFFFFFFFFFFFFFF3E
:1035E000FFFFFFFFD0FFFF0000000000000000BA57
:1035F000FF8AF7FFFFFFFFFFFFFFFFFFFFFFFFFF58
:10360000FFFF40FDB70000000000000040F6FF870C
:10361000FFFFFFFFFFFFFFFFFFFFFFFFFFFFFFFFBA
:103620003FE0FF2B00000000000000FAFF85FFFFD5
:10363000FFFFFFFFFFFFFFFFFFFFFFFFFFFF3F64F5
:10364000FFFF070000000020F5FF17AEFFFFFFFFA0
:10365000FFFFFFFFFFFFFFFFFFFFFFFF7FA8FF7FD1
:103660002500000000D0FFFF2BFEFFFFFFFFFFFF44
:10367000FFFFFFFFFFFFFFFFFFFFFF1FA0FFBF4A8E
:1036800000000052FDFF0FFEFFFFFFFFFFFFFFFFE7
:10369000FFFFFFFFFFFFFFFFFF1FD8FFFFFFFFF749
:1036A000FFFFFF05F8FFFFFFFFFFFFFFFFFFFFFF2B
:1036B000FFFFFFFFFFFFFF1F50FFFFFFDB5EFBFF72
:1036C000FF0FF8FFFFFFFFFFFFFFFFFFFFFFFFFF01
:1036D000FFFFFFFFFFFF3F80FAFFFEFBFFFFB71575
:1036E000F8FFFFFFFFFFFFFFFFFFFFFFFFFFFFFFF1
:1036F000FFFFFFFF3F40DBFFFFFFFF5F02FEFFFF1B
:10370000FFFFFFFFFFFFFFFFFFFFFFFFFFFFFFFFC9
:10371000FFFF3FA0FEFFFFFFFFFB02FEFFFFFFFFDB
:10372000FFFFFFFFFFFFFFFFFFFFFFFFFFFFFFFFA9
:10373000FFFE0700555555D706FEFFFFFFFFFFFFB1
:10374000FFFFFFFFFFFFFFFFFFFFFFFFFFFFFFFF89
:103750000720480A00F0FFFFFFFFFFFFFFFFFFFF0A
:10376000FFFFFFFFFFFFFFFFFFFFFFFFFFFF070060
:10377000495101F0FFFFFFFFFFFFFFFFFFFFFFFFCA
:10378000FFFFFFFFFFFFFFFFFFFFFFFF876A5516E9
:1037900004E0FFFFFFFFFFFFFFFFFFFFFFFFFFFF53
:1037A000FFFFFFFFFFFFFFFFFFFFFFFFFFFFFFFF29
:1037B000FFFFFFFFFFFFFFFFFFFFFFFFFFFFFFFF19
:1037C000FFFFFFFFFFFFFFFFFFFFFFFFFFFFFFFF09
:1037D000FFFFFFFFFFFFFFFFFFFFFFFFFFFFFFFFF9
:1037E000FFFFFFFFFFFFFFFFFFFFFFFFFFFFFFFFE9
:1037F000FFFFFFFFFFFFFFFFFFFFFFFFFFFFFFFFD9
:10380000FFFFFFFFFFFFFFFFFFFFFFFFFFFFFFFFC8
:10381000FFFFFFFFFFFFFFFFFFFFFFFFFFFFFFFFB8
:10382000FFFFFFFFFFFFFFFBFFFFFFFFFFFFFFFFAC
:10383000FFFFFFFFFFFFFFFFFFFFFFFFFFFFFFFF98
:10384000FFFFFFFFFFFFFFFFFFFFFFFFFFFFFFFF88
:10385000FFFFFFFFFFFFFFFFFFFFFFFFFFFFFFFF78
:10386000FFFFFFFFFFFFFFFFFFFFFFFFFFFFFFFF68
:10387000FFFFFFFFFFFFFFFFFFFFFFFFFFFFFFFF58
:10388000FFFFFFFFFFFFFFFFFFFFFFFFFFFFFFFF48
:10389000FFFFFFFFFFFFFFFFFFFFFFFFFFFFFFFF38
:1038A000FFFFFFFFFFFFFFFFFFFFFFFFFFFFFFFF28
:1038B000FFFFFFFFFFFFFFFFFFFFFFFFFFFFFFFF18
:1038C000FFFFFFFFFFFFFFFFFFFF92AAAAAA6ADB2D
:1038D000FEFFFFFFFFFFFFFFFFFFFFFFFFFFFFFFF9
:1038E000FFFFFFFFFFFFFFFFAA52A5AA8A240100E6
:1038F0000000495255D5F6FFFFFFFFFFFFFFFFFF16
:10390000FFFFFFFFFFFFAAAA2AA9342955555555E5
:103910009212441200000000104955556DFFFFFF40
:10392000FFFFFFFF11241FBECFEFD1E2DEBFCDBFEF
:1039300000E00CBF12E0A0E0B2E0E0EDFEE400E049
:103940000BBF02C007900D92A431B107D9F70E94B6
:1039500082260C9466270C940000CF93DF93CBE073
:10396000D1E098819F7E988398819E7F98830E9462
:103970002820888181608883DF91CF910895CF933B
:10398000DF93CBE0D1E098819061988398819E7F0E
:1039900098830E942820888181608883DF91CF915D
:1039A0000895EBE0F1E080818F7780832FEF81EE47
:1039B00094E0215080409040E1F700C000008081F9
:1039C000806880832FEF81EE94E02150804090400A
:1039D000E1F700C0000081E00E94AD1C2FEF82E5FE
:1039E00097E0215080409040E1F700C0000081E165
:1039F0000E94AD1C2FEF82E597E02150804090405F
:103A0000E1F700C000008AE30E94AD1C85E50E943A
:103A1000BF1C89E20C94AD1CEBE0F1E080818F7754
:103A200080832FEF81EE94E0215080409040E1F7B9
:103A300000C000008081806880832FEF8BED95E0CF
:103A4000215080409040E1F700C0000081E00E94DA
:103A5000AD1C2FEF82E597E0215080409040E1F7C8
:103A600000C0000081E10E94AD1C2FEF82E597E0CD
:103A7000215080409040E1F700C000008AE30E949E
:103A8000AD1C85E50E94BF1C86E30E94AD1C88E446
:103A90000E94BF1C83E10E94AD1C89E20E94AD1C04
:103AA0002FEF80E792E0215080409040E1F700C086
:103AB00000000895CF92DF92EF92FF920F931F9331
:103AC000CF93DF93D82EC92E162F072FF42EE52E75
:103AD000E9018AE20E94AD1C8C2D0E94BF1C8D2D35
:103AE0000E94BF1C8E2D0E94BF1C8F2D0E94BF1CE8
:103AF0008BE20E94AD1C802F0E94BF1C812F0E9470
:103B0000BF1C8D2F0E94BF1C8C2F0E94BF1C8CE2FB
:103B1000DF91CF911F910F91FF90EF90DF90CF90A9
:103B20000C94AD1CCF93C82F892F0E9428208C2F76
:103B3000CF910C942820BF92CF92DF92EF92FF9208
:103B40000F931F93CF93DF93C82FC62EB72ED42F7A
:103B5000F52EE22ED32E682F8AE20E94A8246C2F25
:103B60008B2D0E94C1246C2F8C2D0E94C1246C2FA0
:103B70008D2D0E94C1246C2F8E2D0E94C1246C2F8C
:103B80008BE20E94A8246C2F8F2D0E94C1246C2FE1
:103B90008D2F0E94C1246C2F812F0E94C1246C2F75
:103BA000802F0E94C1246C2F8CE2DF91CF911F9156
:103BB0000F91FF90EF90DF90CF90BF900C94A824CE
:103BC000EF92FF920F931F93CF93DF93F82EE92E7E
:103BD0000FEE10E02FEE30E050E040E070E060E0EB
:103BE00082E00E949B1D80910B01806180930B01FC
:103BF00080910B018F7B80930B01D0E0C0E08E2D74
:103C00000E9428208F2D0E9428202196C11581EE28
:103C1000D807A9F780910B01806480930B01DF9195
:103C2000CF911F910F91FF90EF9008950F931F93E5
:103C3000CF93DF93D62FC72F813061F50FEE10E0C1
:103C40002FEE30E050E040E070E060E00E949B1D0D
:103C500080910B01806180930B0180910B018D7F1E
:103C600080930B0110E000E08C2F0E9428208D2F04
:103C70000E9428200F5F1F4F011581EE1807A1F742
:103C800080910B01826080930B01DF91CF911F9196
:103C90000F9108958230C9F7862F972FDF91CF912A
:103CA0001F910F910C94E01DCF92DF92EF92FF9243
:103CB000CF93DF93EC012FED31E04FE351E070E063
:103CC00060E090E080E00E945A1D80910B018061CD
:103CD00080930B0180910B018E7F80930B01C12C8F
:103CE00088E5D82E82E0E82EF12C8D2F0E94282026
:103CF0008C2F0E94282081E0C81AD108E108F10821
:103D0000A1F780910B01816080930B01DF91CF912E
:103D1000FF90EF90DF90CF9008958F929F92AF9297
:103D2000BF92CF92DF92EF92FF92CF93DF93EB019E
:103D3000C12CD12C76014C01B12CA12CC814D90472
:103D4000EA04FB0458F0DF91CF91FF90EF90DF90F1
:103D5000CF90BF90AF909F908F9008958D2F0E942D
:103D600028208C2F0E9428208FEFC81AD80AE80A32
:103D7000F80AE4CF2F923F924F925F926F927F9218
:103D80008F929F92AF92BF92CF92DF92EF92FF926B
:103D90000F931F93CF93DF9300D00F92CDB7DEB771
:103DA00029833A83642E712CC62ED12CB601615022
:103DB0007109469F9001479F300D1124280F391F2C
:103DC0003C832B83912C812C8C149D04D4F5F12CF5
:103DD000E12C28C0EB81FC81EE0DFF1DE4913980C0
:103DE0002A80EE2321F080EE382E22242A94B12C52
:103DF000A12C4E2E512CC2010A2C02C095958795FC
:103E00000A94E2F780FD1BC0832D922D0E94921D23
:103E10003FEFA31AB30A88E0A816B10461F79FEF39
:103E2000E91AF90AE614F704ACF22FEF821A920AA3
:103E30008B819C81861997099C838B83C5CFC80190
:103E4000E5CF0F900F900F900F90DF91CF911F91C2
:103E50000F91FF90EF90DF90CF90BF90AF909F9029
:103E60008F907F906F905F904F903F902F9008952C
:103E7000EF92FF920F931F93CF93DF93EC01F12CFE
:103E8000E12CEC16FD063CF0DF91CF911F910F91D4
:103E9000FF90EF90089561E086E30E94A82461E01E
:103EA00088E00E94C12462E086E30E94A82462E0C8
:103EB00088E00E94C1240CED10E020EF30E050E0DB
:103EC00040E070E060E081E00E949B1D20EF30E068
:103ED00050E040E070E060E082E00E949B1D809135
:103EE0000B01806180930B0180910B018D7F80938A
:103EF0000B0180910B018F7B80930B0160EE7FEBB8
:103F000080E49EEC0E948D1E80910B018260809364
:103F10000B0180910B01806480930B0161E086E3CB
:103F20000E94A82461E088EC0E94C12462E086E33C
:103F30000E94A82462E088EC0E94C1240FEE10E0E9
:103F40002FEE30E050E040E070E060E081E00E9461
:103F50009B1D2FEE30E050E040E070E060E082E03A
:103F60000E949B1D80910B01806180930B018091C9
:103F70000B018D7F80930B0180910B018F7B8093D0
:103F80000B0110E000E02FEF3FEF4EE160EF84E027
:103F90009DE10E94BA1E80910B01826080930B010B
:103FA00080910B01806480930B0161E086E30E94A5
:103FB000A82461E088E00E94C12462E086E30E94B8
:103FC000A82462E088E00E94C1248FEFE81AF80A72
:103FD00058CF0E942D200E941B200E940C1D2FEF05
:103FE00083EC99E0215080409040E1F700C0000050
:103FF00081E00E94DA2482E00C94DA24962FBA0140
:10400000899FC00111240C948D1E623011F40C9410
:10401000381F089560EE7FEF81E00E94161E80EE4B
:104020009FEF0E94E01D61E089E20E94A82462E007
:1040300089E20C94A82484B1876084B9EAE0F1E0B5
:1040400080818365808380E58CBD81E08DBD08958E
:104050008EBD0DB407FEFDCF08951092C50080E11E
:104060008093C40082E08093C00086E08093C20009
:10407000E1ECF0E0808180618083808188608083D2
:104080000895CF93DF930F92CDB7DEB789838981EF
:104090008093C6000F90DF91CF9108958091C60064
:1040A0000895FC018081811101C008958091C000B4
:1040B00085FFFCCF81918093C600F4CFE1ECF0E066
:1040C0008081806880838FB780688FBF0895CF9389
:1040D000DF930F92CDB7DEB789838091C00085FF53
:1040E000FCCF89818093C6000F90DF91CF91089516
:1040F0008091C00087FFFCCF8091C6000895CF93C8
:10410000DF9300D000D00F92CDB7DEB7AC0180E3D3
:10411000898388E78A831F82FE013196BE0163503E
:104120007109CF01242F2F702A30B0F4205D258330
:1041300024E0569547952A95E1F731976E177F074A
:1041400089F70E94512027960FB6F894DEBF0FBE64
:10415000CDBFDF91CF910895295CE9CF9FEB980FF8
:1041600081E09A3108F080E008959FE9980F9A3134
:1041700008F4805208959FEB980F9A3108F4805EFE
:1041800008959FEB980F9A3110F00C94B5200C9481
:10419000BB208D3029F090EE980F81E0903608F426
:1041A00080E0089590EE980F81E09F3508F080E060
:1041B000089598EF980F81E0923008F080E008951C
:1041C000FC0190E080E0309731F02191211101C095
:1041D00008950196FACF0895EF92FF920F931F93DF
:1041E000CF93DF93EC018B010E94E0207C01C8019A
:1041F0000E94E020E816F90699F48881F8018111FF
:104200000BC081E0DF91CF911F910F91FF90EF9054
:1042100008959991981304C081918111FACFF1CF3B
:1042200080E0F0CFCF93DF93EB01009739F00E944D
:10423000E0209C0181E02C173D0709F080E0DF9130
:10424000CF910895FC01892B19F081E0908196139C
:1042500080E00895FC01892B69F0319681918111EC
:1042600002C081E0089590ED980F9A30B8F381561E
:104270008630A0F380E00895CF93DF93EC01FB013B
:10428000DA010097B9F029812223A1F0A80FB91F04
:1042900011968C91119780838A81882371F01296F0
:1042A0008C91818382E090E0E80FF91F1082DF910A
:1042B000CF91089590E080E0F7CF81E090E0F4CFD7
:1042C00090ED980F81E09A3008F080E00895CF9348
:1042D000DF9300D00F920F92CDB7DEB79C011A8208
:1042E00019821D821C821B82892B79F580E03BC0DC
:1042F00089819A81892B79F4E981FA81E20FF31F90
:1043000080818053E981FA81E20FF31F8A3098F1AE
:1043100080818136A0F589819A81019789F4E981AC
:10432000FA81E20FF31F80818053E981FA818A309C
:10433000A0F58C81E20FF31F80539081890F8C834D
:1043400089819A8101969A838983E981FA81E20FB2
:10435000F31F80818111CCCF8D819C818295807FDC
:10436000890F8B838B810F900F900F900F900F9080
:10437000DF91CF910895808180538D83CCCFE981E7
:10438000FA81E20FF31F8081873628F6E981FA81EE
:10439000E20FF31F80818755F0CFE20FF31F80817A
:1043A000813670F2E981FA81E20FF31F808187364E
:1043B00038F6E981FA818C81E20FF31F8755BDCF72
:1043C0009C0190E080E0F901E80FF91F4081411164
:1043D00001C008950196F7CFEF92FF920F931F93BC
:1043E000CF93DF930F920F92CDB7DEB78C014DB70D
:1043F0005EB75A8349830E94E0219C010196ADB7C4
:10440000BEB7A81BB90B0FB6F894BEBF0FBEADBFA9
:104410008DB79EB70196200F311F7C01FC0150E043
:1044200040E0DA01A00FB11F6C91215031096111F8
:1044300021C0840F951FFC011082C8010E94E02159
:104440009C0190E080E0F801E80FF91F2817390778
:10445000B9F41082E981FA810FB6F894FEBF0FBE5D
:10446000EDBF0F900F90DF91CF911F910F91FF90B3
:10447000EF900895D9016C9161934F5F5F4FD1CF59
:10448000D7014D917D0140830196DDCFCF93DF931E
:10449000EC018A30910538F06AE070E00E94A126B4
:1044A000CB010E944622CE016AE070E00E94A12664
:1044B000805DDF91CF910C9467208F929F92AF9295
:1044C000BF92EF92FF921F93CF93DF93CDB7DEB7EA
:1044D0002E970FB6F894DEBF0FBECDBF6B877C87DB
:1044E0008D879E878B859C85AD85BE85892B8A2B84
:1044F0008B2B91F480E32E960FB6F894DEBF0FBE9F
:10450000CDBFDF91CF911F91FF90EF90BF90AF9003
:104510009F908F900C94672010E08AE0882E912C59
:10452000A12CB12CA1E0B0E0AC0FBD1FA10FB11DBB
:104530007D011F5F6B857C858D859E85A50194011E
:104540000E94C926605DF70160838B859C85AD85DF
:10455000BE852B873C874D875E870A97A105B105ED
:1045600008F7115080F42E960FB6F894DEBF0FBEF8
:10457000CDBFDF91CF911F91FF90EF90BF90AF9093
:104580009F908F900895E1E0F0E0EC0FFD1FE10FA8
:10459000F11D80810E946720E4CFAC0190E080E0B3
:1045A00030E04115510531F0FA01E30FF11D208192
:1045B000211101C0089560ED620F6A3030F06FE99B
:1045C000620F6630B8F769EA620F24E0880F991F1E
:1045D0002A95E1F7862B3F5FE4CFCF93DF930F92CD
:1045E0000F92CDB7DEB79A83898390E080E029816E
:1045F0003A818217930728F00F900F90DF91CF91A7
:1046000008950196F4CFCF93DF93EC01209719F42E
:10461000DF91CF91089580ED97E00E94ED222197E0
:10462000F5CFCF93DF9300D000D0CDB7DEB78D8329
:104630009E83F0E020E030E0A9018D819E8100970B
:1046400031F0DC01AF0FB11DEC91E1110AC0C901DD
:1046500026960FB6F894DEBF0FBECDBFDF91CF9187
:104660000895E053EA3098F7AAE0B0E00E94EB2604
:1046700069837A838B839C839B01AC012E0F311D50
:10468000411D511DFF5FD9CF9C01FC012115310552
:1046900019F08081811102C081E0089581918053D9
:1046A0008A30A0F380E008952F923F924F925F925C
:1046B0006F927F928F929F92AF92BF92CF92DF9232
:1046C000EF92FF920F931F93CF93DF9300D00F923F
:1046D000CDB7DEB71C010E94E0200B970CF068C03C
:1046E000812C412C1C82A0E0B0E0912C712C612C1B
:1046F000512C2114310459F0C101880D911DFC0188
:104700002081222321F0205329832A30D0F0642DE8
:104710007C81CD010F900F900F900F90DF91CF9182
:104720001F910F91FF90EF90DF90CF90BF90AF90CF
:104730009F908F907F906F905F904F903F902F90C1
:1047400008958AE0A82EB12CC12CD12CE12CF12C9B
:1047500000E010E0242D3C81AD01692D772D862DE0
:10476000952D0E94F62659016A017B018C01298151
:1047700030E040E050E060E070E080E090E00E94D7
:104780004E27422E3C83DA01962E772E682E592E24
:1047900083942F3F3F4F4F4F5F4F61057105810558
:1047A000910509F008F4A5CF80E092E00E94512025
:1047B00060E070E080E090E0ADCF1F93CF93DF9397
:1047C00000D000D0CDB7DEB78D839E83ED81FE8112
:1047D000309709F454C08081882309F450C0FFEF5A
:1047E00011E08D3211F0F1E010E020E030E0A9019D
:1047F00029C0AAE0B0E00E94EB2669837A838B830C
:104800009C832E2FEE0F330B20533109032E000C07
:10481000440B550B260F371F481F591FF13049F421
:10482000211580E83807410551055CF08FEF9FE7BF
:104830001CC0FF3F31F4213090E839074105510594
:104840000CF51F5FAD81BE81A10FB11DEC9180ED14
:104850008E0F8A3070F26F2FFF0F770B629FC001AF
:10486000639F900D729F900D112426960FB6F894B9
:10487000DEBF0FBECDBFDF91CF911F91089590E0B5
:1048800080E0F3CF80E090E8F0CF0F931F93CF93B9
:10489000DF9300D000D000D00F920F92CDB7DEB7DB
:1048A0001B8630E020E097FF05C091958195910926
:1048B00021E030E00AE010E011C0EB8541E04E0F4E
:1048C0004B8741E050E04C0F5D1F4E0F511DFA0128
:1048D000B8010E94B526805D8083CB01009769F7FF
:1048E0002130310549F4EB8581E08E0F8B87EC0F89
:1048F000FD2FF11D8DE281838B859FEF980F9B87A4
:1049000081110BC02B960FB6F894DEBF0FBECDBF42
:10491000DF91CF911F910F910895EB8581E090E099
:104920008C0F9D1F8E0F911DFC0180810E946720BE
:10493000E3CFCF93DF93CBE0D1E098819F7B988347
:104940000E942820888180648883DF91CF91089518
:1049500090910B019F7E90930B01613069F49091CF
:104960000B019D7F90930B010E94282080910B01E9
:10497000826080930B010895623011F40C949924A5
:10498000089590910B01906190930B01613069F44F
:1049900090910B019D7F90930B010E9428208091A4
:1049A0000B01826080930B010895623011F40C9426
:1049B00099240895CF93C82FEBE0F1E080818B7F9D
:1049C00080832FEF80E792E0215080409040E1F714
:1049D00000C000008081846080832FEF80E792E038
:1049E000215080409040E1F700C000006C2F8EEF16
:1049F0000E94A8246C2F8FEE0E94A8246C2F8AE3BB
:104A00000E94A8246C2F85E00E94C1246C2F86E3AD
:104A10000E94A8246C2F88E00E94C1246C2F86EB92
:104A20000E94A8246C2F80E00E94C1246C2F80E299
:104A30000E94C1246C2F82E60E94A8246C2F88E17A
:104A40000E94C1246C2F8DE00E94C1246C2F81E74D
:104A50000E94C1246C2F8DEE0E94C1246C2F80E730
:104A60000E94C1246C2F80E70E94C1246C2F88E132
:104A70000E94C1246C2F8FE00E94C1246C2F81E71B
:104A80000E94C1246C2F8FEE0E94C1246C2F80E7FE
:104A90000E94C1246C2F80E70E94C1246C2F83E602
:104AA0000E94A8246C2F88E10E94C1246C2F81E110
:104AB0000E94C1246C2F81E70E94C1246C2F81EFDA
:104AC0000E94C1246C2F80E70E94C1246C2F80E7D4
:104AD0000E94C1246C2F88E10E94C1246C2F83E1C5
:104AE0000E94C1246C2F81E70E94C1246C2F83EFA8
:104AF0000E94C1246C2F80E70E94C1246C2F80E7A4
:104B00000E94C1246C2F84E60E94A8246C2F88E2A6
:104B10000E94C1246C2F89E20E94C1246C2F81EF76
:104B20000E94C1246C2F81E00E94C1246C2F80EF71
:104B30000E94C1246C2F80E00E94C1246C2F80E071
:104B40000E94C1246C2F86E60E94A8246C2F8CE35F
:104B50000E94C1246C2F80E00E94C1246C2F8DEC38
:104B60000E94C1246C2F87E60E94C1246C2F85E42B
:104B70000E94C1246C2F85E40E94C1246C2F80E127
:104B80000E94C1246C2F80E00E94C1246C2F80E021
:104B90000E94C1246C2F80E00E94C1246C2F87E604
:104BA0000E94A8246C2F80E00E94C1246C2F8CE30B
:104BB0000E94C1246C2F80E00E94C1246C2F80E0F1
:104BC0000E94C1246C2F80E00E94C1246C2F81E0E0
:104BD0000E94C1246C2F84E50E94C1246C2F80E1C7
:104BE0000E94C1246C2F82E30E94C1246C2F88E9AB
:104BF0000E94C1246C2F84E70E94A8246C2F80E1BE
:104C00000E94C1246C2F85E80E94C1246C2F80E88B
:104C10000E94C1246C2F80E00E94C1246C2F80E090
:104C20000E94C1246C2F8EE40E94C1246C2F80E06E
:104C30000E94C1246C2F88E90E94A8246C2F8EE367
:104C40000E94C1246C2F87E00E94C1246C2F86EC47
:104C50000E94A8246C2F81E00E94C1246C2F87EB56
:104C60000E94A8246C2F85E30E94C1246C2F8BEB3B
:104C70000E94A8246C2F86E00E94C1246C2F80EC37
:104C80000E94A8246C2F8CE60E94C1246C2F83EC18
:104C90000E94A8246C2F8BE00E94C1246C2F84EC0E
:104CA0000E94A8246C2F8FE00E94C1246C2F80EDFD
:104CB0000E94A8246C2F84EA0E94C1246C2F81EAF0
:104CC0000E94C1246C2F81E20E94A8246C2F81E1F4
:104CD0000E94A8242FEF8BED95E02150804090405A
:104CE000E1F700C000006C2F88E20E94A8242FEF9B
:104CF00089EF90E0215080409040E1F700C0000033
:104D0000CF9108950E94E91F0E940A202FEF80E7AB
:104D100092E0215080409040E1F700C0000080E028
:104D200098EF0E94541E2FEF89E698E121508040B1
:104D30009040E1F700C000008AE090E00E94381F38
:104D4000EECFAA1BBB1B51E107C0AA1FBB1FA617B2
:104D5000B70710F0A61BB70B881F991F5A95A9F724
:104D600080959095BC01CD01089597FB072E16F410
:104D7000009407D077FD09D00E94A12607FC05D03A
:104D80003EF4909581959F4F0895709561957F4F62
:104D90000895A1E21A2EAA1BBB1BFD010DC0AA1F7C
:104DA000BB1FEE1FFF1FA217B307E407F50720F094
:104DB000A21BB30BE40BF50B661F771F881F991F0F
:104DC0001A9469F760957095809590959B01AC0158
:104DD000BD01CF0108950E945727A59F900DB49F54
:104DE000900DA49F800D911D11240895DF93CF9302
:104DF0001F930F939A9DF02D219FF00D8B9DF00D29
:104E00008A9DE02DF10D039FF00D029FE00DF11D35
:104E10004E9DE00DF11D5E9DF00D4F9DF00D7F93B9
:104E20006F93BF92AF925F934F93D5010E94572724
:104E30008B01AC01D7010E945727EB01E80FF91F46
:104E4000D6010E9445272F913F91D6010E945727F6
:104E5000C60FD71FE81FF91FAF91BF910E944527CA
:104E60002F913F910E945727C60FD71FE81FF91FA8
:104E7000D6010E945727E60FF71F9801BE01CF0108
:104E80000F911F91CF91DF9108950E945727460FF0
:104E9000571FC81FD91F08F4319608952A0D3B1DCE
:104EA0004C1D5D1D6E1D7F1D801F911F0895A29FCB
:104EB000B001B39FC001A39F700D811D1124911DEE
:104EC000B29F700D811D1124911D0895F894FFCF9C
:104ED0004F5645522053495A4544204E554D424560
:044EE000520D0A0065
:00000001FF
