:100000000C9472000C948B000C948B000C948B005D
:100010000C948B000C948B000C948B000C948B0034
:100020000C948B000C948B000C948B000C948B0024
:100030000C948B000C948B000C948B000C948B0014
:100040000C948B000C948B000C948B000C948B0004
:100050000C948B000C948B000C948B000C948B00F4
:100060000C948B000C948B000C948B000C948B00E4
:100070000C948B000C948B000C948B000C948B00D4
:100080000C948B000C948B000C948B000C948B00C4
:100090000C948B000C948B000C948B000C948B00B4
:1000A0000C948B000C948B000C948B000C948B00A4
:1000B0000C948B000C948B000C948B000C948B0094
:1000C0000C948B000C948B000C948B000C948B0084
:1000D0000C948B000C948B000C948B000C948B0074
:1000E0000C948B0011241FBECFEFD1E2DEBFCDBF39
:1000F00000E00CBF12E0A0E0B2E0EEEBFFE000E0B9
:100100000BBF02C007900D92A431B107D9F70E942E
:1001100000070C94DD070C9400002D98613021F449
:100120002C980E948F022C9A08952D9A2C980E9448
:100130008F022C9A0895CF93C82F2F982FEF80E726
:1001400092E0215080409040E1F700C000002F9ADB
:100150002FEF80E792E0215080409040E1F700C00F
:1001600000006C2F8EEF0E948D006C2F8FEE0E948E
:100170008D006C2F8AE30E948D0085E00E9495001F
:100180006C2F86E30E948D0088E00E9495006C2F02
:1001900086EB0E948D0080E00E94950080E20E9424
:1001A00095006C2F82E60E948D0088E10E949500E8
:1001B0008DE00E94950081E70E9495008DEE0E94DF
:1001C000950080E70E94950080E70E94950088E1F5
:1001D0000E9495008FE00E94950081E70E949500A3
:1001E0008FEE0E94950080E70E94950080E70E94B4
:1001F00095006C2F83E60E948D0088E10E94950097
:1002000081E10E94950081E70E94950081EF0E94A4
:10021000950080E70E94950080E70E94950088E1A4
:100220000E94950083E10E94950081E70E9495005D
:1002300083EF0E94950080E70E94950080E70E946E
:1002400095006C2F84E60E948D0088E20E94950044
:1002500089E20E94950081EF0E94950081E00E9452
:10026000950080EF0E94950080E00E94950080E05C
:100270000E9495006C2F86E60E948D008CE30E9400
:10028000950080E00E9495008DEC0E94950087E625
:100290000E94950085E40E94950085E40E949500E7
:1002A00080E10E94950080E00E94950080E00E941D
:1002B000950080E00E9495006C2F87E60E948D00DB
:1002C00080E00E9495008CE30E94950080E00E94EF
:1002D000950080E00E94950080E00E94950081E0FA
:1002E0000E94950084E50E94950080E10E9495009F
:1002F00082E30E94950088E90E9495006C2F84E7B4
:100300000E948D0080E10E94950085E80E94950082
:1003100080E80E94950080E00E94950080E00E94A5
:1003200095008EE40E94950080E00E9495006C2F5D
:1003300088E90E948D008EE30E94950087E00E946C
:1003400095006C2F86EC0E948D0081E00E94950044
:100350006C2F87EB0E948D0085E30E9495006C2F27
:100360008BEB0E948D0086E00E9495006C2F80EC44
:100370000E948D008CE60E9495006C2F83EC0E94F9
:100380008D008BE00E9495006C2F84EC0E948D0004
:100390008FE00E9495006C2F80ED0E948D0084EA12
:1003A0000E94950081EA0E9495006C2F81E20E94D4
:1003B0008D006C2F81E10E948D002FEF8BED95E079
:1003C000215080409040E1F700C000006C2F89E28E
:1003D0000E948D002FEF89EF90E0215080409040E7
:1003E000E1F700C00000CF910895BF92CF92DF9255
:1003F000EF92FF920F931F93CF93DF93C82FC62ED8
:10040000B72ED42FF52EE22ED32E682F8AE20E942B
:100410008D008B2D0E9495008C2D0E9495008D2DB6
:100420000E9495008E2D0E9495006C2F8BE20E94F9
:100430008D008F2D0E9495008D2F0E949500812F99
:100440000E949500802F0E9495006C2F8CE2DF9116
:10045000CF911F910F91FF90EF90DF90CF90BF90C1
:100460000C948D000F931F93CF93DF93EA018B01C0
:100470009C01AB01BC0181E00E94F5012D9A2C98F2
:100480008D2F0E948F028C2F0E948F022C9ADF9159
:10049000CF911F910F910895CF92DF92EF92FF922B
:1004A0000F931F93CF93DF93EB018130F9F40FE3A8
:1004B00011E02FEE30E050E040E070E060E00E949C
:1004C000F5012D9A2C98C12C8CE2D82EEE24E394C1
:1004D000F12C8D2F0E948F028C2F0E948F0281E0C1
:1004E000C81AD108E108F108A1F72C9ADF91CF9141
:1004F0001F910F91FF90EF90DF90CF9008950E9491
:1005000094020E94860281E00C949B0084B1876B68
:1005100084B9289A80E58CBD81E08DBD08958EBD9B
:100520000DB407FEFDCF08951092C50080E18093C1
:10053000C40082E08093C00086E08093C200E1ECBA
:10054000F0E080818061808380818860808308956D
:10055000CF93DF930F92CDB7DEB7898389818093E4
:10056000C6000F90DF91CF9108958091C600089545
:10057000FC018081811101C008958091C00085FF38
:10058000FCCF81918093C600F4CFE1ECF0E0808154
:10059000806880838FB780688FBF0895CF93DF9383
:1005A0000F92CDB7DEB789838091C00085FFFCCF65
:1005B00089818093C6000F90DF91CF91089580913B
:1005C000C00087FFFCCF8091C6000895CF93DF93D2
:1005D00000D000D00F92CDB7DEB7AC0180E38983A5
:1005E00088E78A831F82FE013196BE01635071093C
:1005F000CF01242F2F702A30B0F4205D258324E012
:10060000569547952A95E1F731976E177F0789F739
:100610000E94B80227960FB6F894DEBF0FBECDBF7A
:10062000DF91CF910895295CE9CF9FEB980F81E08E
:100630009A3108F080E008959FE9980F9A3108F404
:10064000805208959FEB980F9A3108F4805E0895C8
:100650009FEB980F9A3110F00C941C030C9422031A
:100660008D3029F090EE980F81E0903608F480E00C
:10067000089590EE980F81E09F3508F080E008958E
:1006800098EF980F81E0923008F080E00895FC0127
:1006900090E080E0309731F02191211101C0089560
:1006A0000196FACF0895EF92FF920F931F93CF9385
:1006B000DF93EC018B010E9447037C01C8010E947B
:1006C0004703E816F90699F48881F80181110BC0F7
:1006D00081E0DF91CF911F910F91FF90EF900895EE
:1006E0009991981304C081918111FACFF1CF80E0E4
:1006F000F0CFCF93DF93EB01009739F00E944703CF
:100700009C0181E02C173D0709F080E0DF91CF913B
:100710000895FC01892B19F081E09081961380E007
:100720000895FC01892B69F031968191811102C0F5
:1007300081E0089590ED980F9A30B8F38156863095
:10074000A0F380E00895CF93DF93EC01FB01DA0181
:100750000097B9F029812223A1F0A80FB91F1196A3
:100760008C91119780838A81882371F012968C91E5
:10077000818382E090E0E80FF91F1082DF91CF9132
:10078000089590E080E0F7CF81E090E0F4CF90ED25
:10079000980F81E09A3008F080E00895CF93DF93BE
:1007A00000D00F920F92CDB7DEB79C011A8219824A
:1007B0001D821C821B82892B79F580E03BC08981D8
:1007C0009A81892B79F4E981FA81E20FF31F808104
:1007D0008053E981FA81E20FF31F8A3098F180811A
:1007E0008136A0F589819A81019789F4E981FA819E
:1007F000E20FF31F80818053E981FA818A30A0F5EE
:100800008C81E20FF31F80539081890F8C83898143
:100810009A8101969A838983E981FA81E20FF31F15
:1008200080818111CCCF8D819C818295807F890FC1
:100830008B838B810F900F900F900F900F90DF9113
:10084000CF910895808180538D83CCCFE981FA8147
:10085000E20FF31F8081873628F6E981FA81E20FE3
:10086000F31F80818755F0CFE20FF31F808181361F
:1008700070F2E981FA81E20FF31F8081873638F642
:10088000E981FA818C81E20FF31F8755BDCF9C016E
:1008900090E080E0F901E80FF91F4081411101C0AB
:1008A00008950196F7CFEF92FF920F931F93CF9386
:1008B000DF930F920F92CDB7DEB78C014DB75EB7C5
:1008C0005A8349830E9447049C010196ADB7BEB785
:1008D000A81BB90B0FB6F894BEBF0FBEADBF8DB746
:1008E0009EB70196200F311F7C01FC0150E040E0D3
:1008F000DA01A00FB11F6C9121503109611121C0A3
:10090000840F951FFC011082C8010E9447049C01BE
:1009100090E080E0F801E80FF91F28173907B9F4D3
:100920001082E981FA810FB6F894FEBF0FBEEDBFC9
:100930000F900F90DF91CF911F910F91FF90EF904B
:100940000895D9016C9161934F5F5F4FD1CFD7016B
:100950004D917D0140830196DDCFCF93DF93EC0174
:100960008A30910538F06AE070E00E941807CB01E8
:100970000E94AD04CE016AE070E00E941807805D1D
:10098000DF91CF910C94CE028F929F92AF92BF9243
:10099000EF92FF921F93CF93DF93CDB7DEB72E97E1
:1009A0000FB6F894DEBF0FBECDBF6B877C878D87F7
:1009B0009E878B859C85AD85BE85892B8A2B8B2B4D
:1009C00091F480E32E960FB6F894DEBF0FBECDBF34
:1009D000DF91CF911F91FF90EF90BF90AF909F90CC
:1009E0008F900C94CE0210E08AE0882E912CA12CDE
:1009F000B12CA1E0B0E0AC0FBD1FA10FB11D7D0176
:100A00001F5F6B857C858D859E85A50194010E9465
:100A10004007605DF70160838B859C85AD85BE8551
:100A20002B873C874D875E870A97A105B10508F79C
:100A3000115080F42E960FB6F894DEBF0FBECDBFD6
:100A4000DF91CF911F91FF90EF90BF90AF909F905B
:100A50008F900895E1E0F0E0EC0FFD1FE10FF11D34
:100A600080810E94CE02E4CFAC0190E080E030E0D3
:100A70004115510531F0FA01E30FF11D20812111DB
:100A800001C0089560ED620F6A3030F06FE9620FC7
:100A90006630B8F769EA620F24E0880F991F2A953B
:100AA000E1F7862B3F5FE4CFCF93DF930F920F9256
:100AB000CDB7DEB79A83898390E080E029813A81BF
:100AC0008217930728F00F900F90DF91CF91089530
:100AD0000196F4CFCF93DF93EC01209719F4DF91C7
:100AE000CF91089580ED97E00E9454052197F5CFAE
:100AF000CF93DF9300D000D0CDB7DEB78D839E8338
:100B0000F0E020E030E0A9018D819E81009731F076
:100B1000DC01AF0FB11DEC91E1110AC0C9012696AD
:100B20000FB6F894DEBF0FBECDBFDF91CF91089511
:100B3000E053EA3098F7AAE0B0E00E9462076983C8
:100B40007A838B839C839B01AC012E0F311D411D49
:100B5000511DFF5FD9CF9C01FC012115310519F012
:100B60008081811102C081E00895819180538A3093
:100B7000A0F380E008952F923F924F925F926F9280
:100B80007F928F929F92AF92BF92CF92DF92EF921D
:100B9000FF920F931F93CF93DF9300D00F92CDB7A7
:100BA000DEB71C010E9447030B970CF068C0812C34
:100BB000412C1C82A0E0B0E0912C712C612C512CB6
:100BC0002114310459F0C101880D911DFC012081CF
:100BD000222321F0205329832A30D0F0642D7C81F8
:100BE000CD010F900F900F900F90DF91CF911F913B
:100BF0000F91FF90EF90DF90CF90BF90AF909F90BC
:100C00008F907F906F905F904F903F902F900895BE
:100C10008AE0A82EB12CC12CD12CE12CF12C00E0C3
:100C200010E0242D3C81AD01692D772D862D952D69
:100C30000E946D0759016A017B018C01298130E016
:100C400040E050E060E070E080E090E00E94C50786
:100C5000422E3C83DA01962E772E682E592E8394ED
:100C60002F3F3F4F4F4F5F4F610571058105910544
:100C700009F008F4A5CF80E092E00E94B80260E09D
:100C800070E080E090E0ADCF1F93CF93DF9300D072
:100C900000D0CDB7DEB78D839E83ED81FE81309786
:100CA00009F454C08081882309F450C0FFEF11E09B
:100CB0008D3211F0F1E010E020E030E0A90129C010
:100CC000AAE0B0E00E94620769837A838B839C83E9
:100CD0002E2FEE0F330B20533109032E000C440B43
:100CE000550B260F371F481F591FF13049F42115A6
:100CF00080E83807410551055CF08FEF9FE71CC085
:100D0000FF3F31F4213090E83907410551050CF5DA
:100D10001F5FAD81BE81A10FB11DEC9180ED8E0FE3
:100D20008A3070F26F2FFF0F770B629FC001639FB5
:100D3000900D729F900D112426960FB6F894DEBF89
:100D40000FBECDBFDF91CF911F91089590E080E05D
:100D5000F3CF80E090E8F0CF0F931F93CF93DF9312
:100D600000D000D000D00F920F92CDB7DEB71B8617
:100D700030E020E097FF05C091958195910921E031
:100D800030E00AE010E011C0EB8541E04E0F4B87E8
:100D900041E050E04C0F5D1F4E0F511DFA01B801AC
:100DA0000E942C07805D8083CB01009769F721307A
:100DB000310549F4EB8581E08E0F8B87EC0FFD2F19
:100DC000F11D8DE281838B859FEF980F9B878111A9
:100DD0000BC02B960FB6F894DEBF0FBECDBFDF91D0
:100DE000CF911F910F910895EB8581E090E08C0FDA
:100DF0009D1F8E0F911DFC0180810E94CE02E3CFCA
:100E00000E9494020E947F0260EE77E081E00E94DF
:100E10004C026FE170E081E00E944C022FEF83E210
:100E200094EF215080409040E1F700C00000F1CFE6
:100E3000AA1BBB1B51E107C0AA1FBB1FA617B70700
:100E400010F0A61BB70B881F991F5A95A9F780951C
:100E50009095BC01CD01089597FB072E16F40094E0
:100E600007D077FD09D00E94180707FC05D03EF493
:100E7000909581959F4F0895709561957F4F089546
:100E8000A1E21A2EAA1BBB1BFD010DC0AA1FBB1F8E
:100E9000EE1FFF1FA217B307E407F50720F0A21B00
:100EA000B30BE40BF50B661F771F881F991F1A946D
:100EB00069F760957095809590959B01AC01BD0197
:100EC000CF0108950E94CE07A59F900DB49F900D6D
:100ED000A49F800D911D11240895DF93CF931F933C
:100EE0000F939A9DF02D219FF00D8B9DF00D8A9D03
:100EF000E02DF10D039FF00D029FE00DF11D4E9DC1
:100F0000E00DF11D5E9DF00D4F9DF00D7F936F93F1
:100F1000BF92AF925F934F93D5010E94CE078B0192
:100F2000AC01D7010E94CE07EB01E80FF91FD601F3
:100F30000E94BC072F913F91D6010E94CE07C60F99
:100F4000D71FE81FF91FAF91BF910E94BC072F91D7
:100F50003F910E94CE07C60FD71FE81FF91FD60189
:100F60000E94CE07E60FF71F9801BE01CF010F9137
:100F70001F91CF91DF9108950E94CE07460F571F12
:100F8000C81FD91F08F4319608952A0D3B1D4C1D2A
:100F90005D1D6E1D7F1D801F911F0895A29FB001D2
:100FA000B39FC001A39F700D811D1124911DB29F9D
:0E0FB000700D811D1124911D0895F894FFCF3E
:100FBE004F5645522053495A4544204E554D4245B1
:040FCE00520D0A00B6
:00000001FF
