:100000000C9472000C948B000C948B000C948B005D
:100010000C948B000C948B000C948B000C948B0034
:100020000C948B000C948B000C948B000C948B0024
:100030000C948B000C948B000C948B000C948B0014
:100040000C948B000C948B000C948B000C948B0004
:100050000C948B000C948B000C948B000C948B00F4
:100060000C948B000C948B000C948B000C948B00E4
:100070000C948B000C948B000C948B000C948B00D4
:100080000C948B000C948B000C948B000C948B00C4
:100090000C948B000C948B000C948B000C948B00B4
:1000A0000C948B000C948B000C948B000C948B00A4
:1000B0000C948B000C948B000C948B000C948B0094
:1000C0000C948B000C948B000C948B000C948B0084
:1000D0000C948B000C948B000C948B000C948B0074
:1000E0000C948B0011241FBECFEFD1E2DEBFCDBF39
:1000F00000E00CBF12E0A0E0B2E0E4E8F2E100E0D2
:100100000BBF02C007900D92A431B107D9F70E942E
:10011000E3070C9440090C9400002D98613021F401
:100120002C980E9472032C9A08952D9A2C980E9464
:1001300072032C9A0895CF93C82F2F982FEF80E742
:1001400092E0215080409040E1F700C000002F9ADB
:100150002FEF80E792E0215080409040E1F700C00F
:1001600000006C2F8EEF0E948D006C2F8FEE0E948E
:100170008D006C2F8AE30E948D0085E00E9495001F
:100180006C2F86E30E948D0088E00E9495006C2F02
:1001900086EB0E948D0080E00E94950080E20E9424
:1001A00095006C2F82E60E948D0088E10E949500E8
:1001B0008DE00E94950081E70E9495008DEE0E94DF
:1001C000950080E70E94950080E70E94950088E1F5
:1001D0000E9495008FE00E94950081E70E949500A3
:1001E0008FEE0E94950080E70E94950080E70E94B4
:1001F00095006C2F83E60E948D0088E10E94950097
:1002000081E10E94950081E70E94950081EF0E94A4
:10021000950080E70E94950080E70E94950088E1A4
:100220000E94950083E10E94950081E70E9495005D
:1002300083EF0E94950080E70E94950080E70E946E
:1002400095006C2F84E60E948D0088E20E94950044
:1002500089E20E94950081EF0E94950081E00E9452
:10026000950080EF0E94950080E00E94950080E05C
:100270000E9495006C2F86E60E948D008CE30E9400
:10028000950080E00E9495008DEC0E94950087E625
:100290000E94950085E40E94950085E40E949500E7
:1002A00080E10E94950080E00E94950080E00E941D
:1002B000950080E00E9495006C2F87E60E948D00DB
:1002C00080E00E9495008CE30E94950080E00E94EF
:1002D000950080E00E94950080E00E94950081E0FA
:1002E0000E94950084E50E94950080E10E9495009F
:1002F00082E30E94950088E90E9495006C2F84E7B4
:100300000E948D0080E10E94950085E80E94950082
:1003100080E80E94950080E00E94950080E00E94A5
:1003200095008EE40E94950080E00E9495006C2F5D
:1003300088E90E948D008EE30E94950087E00E946C
:1003400095006C2F86EC0E948D0081E00E94950044
:100350006C2F87EB0E948D0085E30E9495006C2F27
:100360008BEB0E948D0086E00E9495006C2F80EC44
:100370000E948D008CE60E9495006C2F83EC0E94F9
:100380008D008BE00E9495006C2F84EC0E948D0004
:100390008FE00E9495006C2F80ED0E948D0084EA12
:1003A0000E94950081EA0E9495006C2F81E20E94D4
:1003B0008D006C2F81E10E948D002FEF8BED95E079
:1003C000215080409040E1F700C0000061E088E2E9
:1003D0000E948D002FEF89EF90E0215080409040E7
:1003E000E1F700C00000CF910895BF92CF92DF9255
:1003F000EF92FF920F931F93CF93DF93C82FC62ED8
:10040000B72ED42FF52EE22ED32E682F8AE20E942B
:100410008D008B2D0E9495008C2D0E9495008D2DB6
:100420000E9495008E2D0E9495006C2F8BE20E94F9
:100430008D008F2D0E9495008D2F0E949500812F99
:100440000E949500802F0E9495006C2F8CE2DF9116
:10045000CF911F910F91FF90EF90DF90CF90BF90C1
:100460000C948D000F931F93CF93DF93EA018B01C0
:100470009C01AB01BC0181E00E94F5012D9A2C98F2
:100480008D2F0E9472038C2F0E9472032C9ADF9191
:10049000CF911F910F910895EF92FF920F931F93A9
:1004A000CF93DF93F62EE72E8130D1F40FEE10E0DC
:1004B0002FEE30E050E040E070E060E00E94F50197
:1004C0002D9A2C98D0E0C0E08E2D0E9472038F2DC3
:1004D0000E9472032196C11581EED807A9F72C9AC4
:1004E000DF91CF911F910F91FF90EF9008958F9220
:1004F0009F92AF92BF92CF92DF92EF92FF92CF93F3
:10050000DF93EB01C12CD12C76014C01B12CA12C35
:10051000C814D904EA04FB0458F0DF91CF91FF908E
:10052000EF90DF90CF90BF90AF909F908F90089505
:100530008D2F0E9472038C2F0E9472038FEFC81AB6
:10054000D80AE80AF80AE4CF0E9477030E946903F8
:1005500081E00C949B00AF92BF92CF92DF92EF921A
:10056000FF920F931F93CF93DF9300D000D0CDB7AE
:10057000DEB78D839E83F62EB42EA22EEE2DF0E0F4
:100580009F01D9010E94C50869837A838B839C836C
:10059000402F50E08A010E0F1F1F015011096A2DD4
:1005A00070E09B012E0F3F1F215031098B2D0E94BF
:1005B000F5012D9AED81FE81908101E010E001C0EE
:1005C000000FFA94EAF7802F809589238083B60183
:1005D00089819A810E947702ED81FE818081082BBA
:1005E0000083FFEF29E688E1F15020408040E1F7E9
:1005F00000C0000026960FB6F894DEBF0FBECDBF38
:10060000DF91CF911F910F91FF90EF90DF90CF90EE
:10061000BF90AF900895AF92BF92CF92EF92FF92AA
:100620000F931F93CF93DF9300D000D0CDB7DEB7E9
:100630008D839E83F62EE42FF22F2E2D30E0AC2DED
:10064000B0E00E94C50869837A838B839C83402F26
:1006500050E08A010C0D111D015011096F2F70E03F
:100660009B012E0D311D215031098E2F0E94F50165
:100670002D9AED81FE81908101E010E001C0000F14
:10068000FA94EAF7802F809589238083B5018981C8
:100690009A810E947702ED81FE818081082B008380
:1006A000FFEF29E688E1F15020408040E1F700C0EB
:1006B000000026960FB6F894DEBF0FBECDBFDF91C7
:1006C000CF911F910F91FF90EF90CF90BF90AF907F
:1006D000089584B1876B84B9289A80E58CBD81E048
:1006E0008DBD08958EBD0DB407FEFDCF0895109207
:1006F000C50080E18093C40082E08093C00086E062
:100700008093C200E1ECF0E0808180618083808191
:10071000886080830895CF93DF930F92CDB7DEB7C3
:10072000898389818093C6000F90DF91CF910895CE
:100730008091C6000895FC018081811101C0089557
:100740008091C00085FFFCCF81918093C600F4CFDB
:10075000E1ECF0E08081806880838FB780688FBF94
:100760000895CF93DF930F92CDB7DEB78983809141
:10077000C00085FFFCCF89818093C6000F90DF9178
:10078000CF9108958091C00087FFFCCF8091C60073
:100790000895CF93DF9300D000D00F92CDB7DEB78E
:1007A000AC0180E3898388E78A831F82FE0131964A
:1007B000BE0163507109CF01242F2F702A30B0F48D
:1007C000205D258324E0569547952A95E1F73197DA
:1007D0006E177F0789F70E949B0327960FB6F89440
:1007E000DEBF0FBECDBFDF91CF910895295CE9CF69
:1007F0009FEB980F81E09A3108F080E008959FE91F
:10080000980F9A3108F4805208959FEB980F9A310F
:1008100008F4805E08959FEB980F9A3110F00C94C5
:10082000FF030C9405048D3029F090EE980F81E0C1
:10083000903608F480E0089590EE980F81E09F359F
:1008400008F080E0089598EF980F81E0923008F06A
:1008500080E00895FC0190E080E0309731F0219134
:10086000211101C008950196FACF0895EF92FF92E9
:100870000F931F93CF93DF93EC018B010E942A0407
:100880007C01C8010E942A04E816F90699F48881BF
:10089000F80181110BC081E0DF91CF911F910F9181
:1008A000FF90EF9008959991981304C08191811160
:1008B000FACFF1CF80E0F0CFCF93DF93EB01009739
:1008C00039F00E942A049C0181E02C173D0709F0B1
:1008D00080E0DF91CF910895FC01892B19F081E030
:1008E0009081961380E00895FC01892B69F0319680
:1008F0008191811102C081E0089590ED980F9A30A6
:10090000B8F381568630A0F380E00895CF93DF934B
:10091000EC01FB01DA010097B9F029812223A1F053
:10092000A80FB91F11968C91119780838A81882313
:1009300071F012968C91818382E090E0E80FF91FAC
:100940001082DF91CF91089590E080E0F7CF81E0B1
:1009500090E0F4CF90ED980F81E09A3008F080E0BD
:100960000895CF93DF9300D00F920F92CDB7DEB7EB
:100970009C011A8219821D821C821B82892B79F5A7
:1009800080E03BC089819A81892B79F4E981FA81E1
:10099000E20FF31F80818053E981FA81E20FF31F98
:1009A0008A3098F180818136A0F589819A810197FA
:1009B00089F4E981FA81E20FF31F80818053E98194
:1009C000FA818A30A0F58C81E20FF31F8053908169
:1009D000890F8C8389819A8101969A838983E98121
:1009E000FA81E20FF31F80818111CCCF8D819C8130
:1009F0008295807F890F8B838B810F900F900F9052
:100A00000F900F90DF91CF910895808180538D8357
:100A1000CCCFE981FA81E20FF31F8081873628F677
:100A2000E981FA81E20FF31F80818755F0CFE20F51
:100A3000F31F8081813670F2E981FA81E20FF31FA2
:100A40008081873638F6E981FA818C81E20FF31FC5
:100A50008755BDCF9C0190E080E0F901E80FF91FB8
:100A60004081411101C008950196F7CFEF92FF92A6
:100A70000F931F93CF93DF930F920F92CDB7DEB7F3
:100A80008C014DB75EB75A8349830E942A059C01A9
:100A90000196ADB7BEB7A81BB90B0FB6F894BEBF91
:100AA0000FBEADBF8DB79EB70196200F311F7C01E1
:100AB000FC0150E040E0DA01A00FB11F6C91215021
:100AC0003109611121C0840F951FFC011082C801FA
:100AD0000E942A059C0190E080E0F801E80FF91FD0
:100AE00028173907B9F41082E981FA810FB6F89412
:100AF000FEBF0FBEEDBF0F900F90DF91CF911F9102
:100B00000F91FF90EF900895D9016C9161934F5F21
:100B10005F4FD1CFD7014D917D0140830196DDCF4D
:100B2000CF93DF93EC018A30910538F06AE070E0F2
:100B30000E947B08CB010E949005CE016AE070E024
:100B40000E947B08805DDF91CF910C94B1038F925E
:100B50009F92AF92BF92EF92FF921F93CF93DF933A
:100B6000CDB7DEB72E970FB6F894DEBF0FBECDBF60
:100B70006B877C878D879E878B859C85AD85BE85A1
:100B8000892B8A2B8B2B91F480E32E960FB6F89449
:100B9000DEBF0FBECDBFDF91CF911F91FF90EF90D1
:100BA000BF90AF909F908F900C94B10310E08AE0BB
:100BB000882E912CA12CB12CA1E0B0E0AC0FBD1F70
:100BC000A10FB11D7D011F5F6B857C858D859E8585
:100BD000A50194010E94A308605DF70160838B85E5
:100BE0009C85AD85BE852B873C874D875E870A97A0
:100BF000A105B10508F7115080F42E960FB6F894B0
:100C0000DEBF0FBECDBFDF91CF911F91FF90EF9060
:100C1000BF90AF909F908F900895E1E0F0E0EC0FCF
:100C2000FD1FE10FF11D80810E94B103E4CFAC01F3
:100C300090E080E030E04115510531F0FA01E30F1A
:100C4000F11D2081211101C0089560ED620F6A300D
:100C500030F06FE9620F6630B8F769EA620F24E09E
:100C6000880F991F2A95E1F7862B3F5FE4CFCF933A
:100C7000DF930F920F92CDB7DEB79A83898390E00E
:100C800080E029813A818217930728F00F900F9016
:100C9000DF91CF9108950196F4CFCF93DF93EC01CC
:100CA000209719F4DF91CF91089580ED97E00E948D
:100CB00037062197F5CFCF93DF9300D000D0CDB783
:100CC000DEB78D839E83F0E020E030E0A9018D81C6
:100CD0009E81009731F0DC01AF0FB11DEC91E11165
:100CE0000AC0C90126960FB6F894DEBF0FBECDBF6D
:100CF000DF91CF910895E053EA3098F7AAE0B0E091
:100D00000E94D40869837A838B839C839B01AC0106
:100D10002E0F311D411D511DFF5FD9CF9C01FC01DC
:100D20002115310519F08081811102C081E00895FB
:100D3000819180538A30A0F380E008952F923F92F2
:100D40004F925F926F927F928F929F92AF92BF92DB
:100D5000CF92DF92EF92FF920F931F93CF93DF9387
:100D600000D00F92CDB7DEB71C010E942A040B976A
:100D70000CF068C0812C412C1C82A0E0B0E0912CCA
:100D8000712C612C512C2114310459F0C101880DB2
:100D9000911DFC012081222321F0205329832A3038
:100DA000D0F0642D7C81CD010F900F900F900F90AB
:100DB000DF91CF911F910F91FF90EF90DF90CF9037
:100DC000BF90AF909F908F907F906F905F904F906B
:100DD0003F902F9008958AE0A82EB12CC12CD12CE1
:100DE000E12CF12C00E010E0242D3C81AD01692DB7
:100DF000772D862D952D0E94DF0859016A017B0110
:100E00008C01298130E040E050E060E070E080E05B
:100E100090E00E943709422E3C83DA01962E772E0D
:100E2000682E592E83942F3F3F4F4F4F5F4F6105E0
:100E300071058105910509F008F4A5CF80E092E0E5
:100E40000E949B0360E070E080E090E0ADCF1F93D4
:100E5000CF93DF9300D000D0CDB7DEB78D839E83D4
:100E6000ED81FE81309709F454C08081882309F414
:100E700050C0FFEF11E08D3211F0F1E010E020E002
:100E800030E0A90129C0AAE0B0E00E94D40869833B
:100E90007A838B839C832E2FEE0F330B20533109E3
:100EA000032E000C440B550B260F371F481F591FEC
:100EB000F13049F4211580E83807410551055CF00F
:100EC0008FEF9FE71CC0FF3F31F4213090E83907D6
:100ED000410551050CF51F5FAD81BE81A10FB11D0C
:100EE000EC9180ED8E0F8A3070F26F2FFF0F770B31
:100EF000629FC001639F900D729F900D11242696F2
:100F00000FB6F894DEBF0FBECDBFDF91CF911F911A
:100F1000089590E080E0F3CF80E090E8F0CF0F9369
:100F20001F93CF93DF9300D000D000D00F920F9289
:100F3000CDB7DEB71B8630E020E097FF05C0919566
:100F40008195910921E030E00AE010E011C0EB85C5
:100F500041E04E0F4B8741E050E04C0F5D1F4E0FBC
:100F6000511DFA01B8010E948F08805D8083CB017A
:100F7000009769F72130310549F4EB8581E08E0F48
:100F80008B87EC0FFD2FF11D8DE281838B859FEF09
:100F9000980F9B8781110BC02B960FB6F894DEBF7C
:100FA0000FBECDBFDF91CF911F910F910895EB85BB
:100FB00081E090E08C0F9D1F8E0F911DFC018081C0
:100FC0000E94B103E3CF0E9477030E94A40270E065
:100FD00060E081E00E944C0261E089E20E948D00A5
:100FE0002FEF83ED90E3215080409040E1F700C067
:100FF00000008FE1C82ED12C9CE3E92E0AE52AE5FA
:1010000041E064E085E290E00E94AB02B12CA12CAB
:101010002CE3C22E3EE1E32E2CE341E064E085E2C6
:1010200090E00E940B032FEF80E792E02150804078
:101030009040E1F700C0000040EEC42EDD24DA94B9
:101040005CE3E52E20E541E064E085E290E00E946B
:10105000AB026CE3C62E7AE0E72E2CE841E064E0B8
:1010600085E290E00E940B032FEF80E792E0215091
:1010700080409040E1F700C00000C12CE8EFDE2E78
:10108000FCE3EF2E26E441E064E085E290E00E947C
:10109000AB02ACE3CA2EBAE0EB2E22E841E064E0FA
:1010A00085E290E00E940B032FEF80E792E0215051
:1010B00080409040E1F700C0000080EEC82E87E03D
:1010C000D82E9CE3E92E2CE341E064E085E290E039
:1010D0000E94AB022CE3C22E28E741E064E085E2E7
:1010E00090E00E940B032FEF80E792E021508040B8
:1010F0009040E1F77CCFAA1BBB1B51E107C0AA1FA0
:10110000BB1FA617B70710F0A61BB70B881F991FA8
:101110005A95A9F780959095BC01CD01089597FB4C
:10112000072E16F4009407D077FD09D00E947B08A3
:1011300007FC05D03EF4909581959F4F08957095DA
:1011400061957F4F0895A1E21A2EAA1BBB1BFD01DA
:101150000DC0AA1FBB1FEE1FFF1FA217B307E40796
:10116000F50720F0A21BB30BE40BF50B661F771FEE
:10117000881F991F1A9469F76095709580959095CE
:101180009B01AC01BD01CF010895A29FB001B39FA7
:10119000C001A39F700D811D1124911DB29F700D80
:1011A000811D1124911D08950E94C508A59F900DD1
:1011B000B49F900DA49F800D911D11240895DF937D
:1011C000CF931F930F939A9DF02D219FF00D8B9D30
:1011D000F00D8A9DE02DF10D039FF00D029FE00DB3
:1011E000F11D4E9DE00DF11D5E9DF00D4F9DF00D2A
:1011F0007F936F93BF92AF925F934F93D5010E94FD
:10120000C5088B01AC01D7010E94C508EB01E80FAE
:10121000F91FD6010E942E092F913F91D6010E94FD
:10122000C508C60FD71FE81FF91FAF91BF910E94D5
:101230002E092F913F910E94C508C60FD71FE81FA6
:10124000F91FD6010E94C508E60FF71F9801BE01DD
:10125000CF010F911F91CF91DF9108950E94C50892
:10126000460F571FC81FD91F08F4319608952A0D3D
:101270003B1D4C1D5D1D6E1D7F1D801F911F089520
:04128000F894FFCF10
:101284004F5645522053495A4544204E554D4245E8
:04129400520D0A00ED
:00000001FF
