:100000000C9434000C9451000C9451000C94510049
:100010000C9451000C9451000C9451000C9451001C
:100020000C9451000C9451000C9451000C9451000C
:100030000C9451000C9451000C9451000C945100FC
:100040000C9451000C9451000C9451000C945100EC
:100050000C9451000C9451000C9451000C945100DC
:100060000C9451000C94510011241FBECFEFD8E026
:10007000DEBFCDBF1AE0A0E0B1E0EAE4F3E102C0E8
:1000800005900D92A239B107D9F72AE0A2E9BAE0AA
:1000900001C01D92A73BB207E1F70E94A9080C948A
:1000A000A3090C94000028982A980E9424032A9AF5
:1000B0000895289A2A980E9424032A9A0895299834
:1000C0002FEF81EE94E0215080409040E1F700C096
:1000D0000000299A2FEF81EE94E02150804090405B
:1000E000E1F700C0000081E00E9453002FEF82E59D
:1000F00097E0215080409040E1F700C0000081E18E
:100100000E9453002FEF82E597E0215080409040FD
:10011000E1F700C000008AE30E94530085E50E94D9
:10012000590089E20C945300CF92DF92EF92FF9234
:100130000F931F93CF93DF93D82EC92E162F072F1F
:10014000F42EE52EE9018AE20E9453008C2D0E94D4
:1001500059008D2D0E9459008E2D0E9459008F2D1F
:100160000E9459008BE20E945300802F0E94590088
:10017000812F0E9459008D2F0E9459008C2F0E94C0
:1001800059008CE2DF91CF911F910F91FF90EF907A
:10019000DF90CF900C945300282FFC018E2F821BF0
:1001A000309719F091919111F9CF0895CF93DF9382
:1001B000EA012FE331E04FEE50E00E949400289ACC
:1001C0002A988D2F0E9424038C2F0E9424032A9AA0
:1001D000DF91CF910895CF92DF92EF92FF92CF936C
:1001E000DF93EC012FE331E04FEE50E070E060E090
:1001F00090E080E00E949400289A2A98C12C8CE21A
:10020000D82EEE24E394F12C8D2F0E9424038C2F02
:100210000E94240381E0C81AD108E108F108A1F77F
:100220002A9ADF91CF91FF90EF90DF90CF900895C1
:100230002F923F924F925F926F927F928F929F92F6
:10024000AF92BF92CF92DF92EF92FF920F931F93E4
:10025000CF93DF93CDB7DEB728970FB6F894DEBF04
:100260000FBECDBF082F792E7B012D833E8380EEFC
:10027000840F8F3508F04FE3042E000C550B4052CD
:10028000510924E1249FC001259F900D11249C0158
:100290002F5F3E4F190167010F83788610E085E0DC
:1002A000482E112309F441C01130F9F48091000166
:1002B000EF81F885849DE00DF11D1124F887EF830F
:1002C00067013A822982912C812CB12CA12CE981E1
:1002D000FA81808190E00A2C02C0959587950A9456
:1002E000E2F780FF48C0612C42C0123059F480917F
:1002F00000016701F7E08F9FC00CD11C11240F8310
:100300007886DFCF1330E9F6809100012F813885A0
:10031000849D200D311D112438872F83670137E01C
:10032000839FC00CD11C1124CCCF6701E8CF9A9DCC
:10033000B0019B9D700D11246C0D7D1D2B813C81A6
:10034000620F731F989D9001999D300D11248F812C
:100350009885820F931F4D815E81850D911D0E94AE
:10036000D600539490910001591608F3639480913C
:1003700000016816B0F19FEFA91AB90AE7E0AE16BE
:10038000B10409F0A4CFFFEF8F1A9F0A29813A81A7
:100390002F5F3F4F3A83298335E08316910409F09C
:1003A00094CF1F5F85E0280E311C143009F079CFFF
:1003B00028960FB6F894DEBF0FBECDBFDF91CF9168
:1003C0001F910F91FF90EF90DF90CF90BF90AF9073
:1003D0009F908F907F906F905F904F903F902F9065
:1003E0000895512C862D90E09C838B83BBCF7F9208
:1003F0008F929F92AF92BF92CF92DF92EF92FF9235
:100400000F931F93CF93DF9300D000D0CDB7DEB70B
:100410006C015B01142F022F732E80EE840F8F3539
:1004200008F01FE3212F2052330B490125E0289DBE
:10043000C001299D900D1124AC014359574F7A01F9
:1004400088E49AE00E944D03C4010E944E0689E5AB
:100450009AE00E944D03C7010E944E0689E59AE08A
:100460000E944D03812F0E94630384E69AE00E945C
:100470004D03C7010E947B038EE89AE00E944D0362
:100480001C828C81853094F00F900F900F900F900C
:10049000DF91CF911F910F91FF90EF90DF90CF9060
:1004A000BF90AF909F908F907F9008951B828B811B
:1004B000873044F087E59AE00E944D038C818F5F7E
:1004C0008C83DFCF8C81F701E80FF11D87FDFA9552
:1004D00080812B8190E002C0959587952A95E2F75F
:1004E00080FF1EC081E090E00E944E061A828A8141
:1004F000082E000C990B2091000128171906A1F075
:100500009CF01982898140910001082E000C990B02
:100510004817190609F064F48A818F5F8A83E7CF50
:1005200090E080E00E944E068B818F5F8B83BFCF6F
:100530006B818A813C8129816403B00111246A0D99
:100540007B1D680F711D87FD7A953403C00111244E
:10055000A601420F511D27FD5A959A01402F572D94
:10056000820F931F0E94D60089818F5F8983CACF33
:100570004F925F926F927F928F929F92AF92BF92B3
:10058000CF92DF92EF92FF920F931F93CF93DF935F
:10059000EC01B62EA72E6A01922E832E702E612EAC
:1005A000CA010E94CC007601E80EF11C85E0582EAD
:1005B00096E0492ECE14DF0489F4DF91CF911F918C
:1005C0000F91FF90EF90DF90CF90BF90AF909F90F2
:1005D0008F907F906F905F904F900895F7014291B8
:1005E0007F0180910001072D162D292D382D6B2DAF
:1005F0007A2D823090F0CE010E9418018091000186
:10060000859DC00111249C012F5F3F4F820F931FD6
:10061000C80FD91F40920001CDCFCE010E94F70133
:1006200080910001859DC00DD11D11242196C2CF5E
:100630000E9429030E941E030C945F0084B18F6204
:1006400084B981E58CBD08958EBD0DB407FEFDCF44
:1006500008951092C50080E18093C40082E08093E9
:10066000C00086E08093C200E1ECF0E08081806110
:1006700080838081886080830895CF93DF930F9279
:10068000CDB7DEB7898389818093C6000F90DF9153
:10069000CF9108958091C6000895FC018081811159
:1006A00001C008958091C00085FFFCCF81918093A7
:1006B000C600F4CFE1ECF0E08081806880838FB7E2
:1006C00080688FBF0895CF93DF930F92CDB7DEB7C9
:1006D00089838091C00085FFFCCF89818093C6000B
:1006E0000F90DF91CF9108958091C00087FFFCCFDC
:1006F0008091C6000895CF93DF9300D000D000D042
:100700000F92CDB7DEB7AC0180E3898388E78A8397
:100710001F82FE013196BE0163507109CF01242F63
:100720002F702A30B0F4205D258324E0569547953C
:100730002A95E1F731976E177F0789F70E944D03DD
:1007400027960FB6F894DEBF0FBECDBFDF91CF91D5
:100750000895295CE9CF9FEB980F81E09A3108F06A
:1007600080E008959FE9980F9A3108F48052089527
:100770009FEB980F9A3108F4805E08959FEB980FD5
:100780009A3110F00C94B2030C94B8038D3029F018
:1007900090EE980F81E0903608F480E0089590EE96
:1007A000980F81E09F3508F080E0089598EF980F4A
:1007B00081E0923008F080E00895FC0190E080E054
:1007C000309731F02191211101C008950196FACF9F
:1007D0000895EF92FF920F931F93CF93DF93EC0155
:1007E0008B010E94DD037C01C8010E94DD03E81635
:1007F000F90699F48881F80181110BC081E0DF913D
:10080000CF911F910F91FF90EF90089599919813B8
:1008100004C081918111FACFF1CF80E0F0CFCF9366
:10082000DF93EB01009739F00E94DD039C0181E02A
:100830002C173D0709F080E0DF91CF910895FC016E
:10084000892B19F081E09081961380E00895FC01D6
:10085000892B69F031968191811102C081E0089560
:1008600090ED980F9A30B8F381568630A0F380E06F
:100870000895CF93DF93EC01FB01DA010097B9F003
:1008800029812223A1F0A80FB91F11968C911197ED
:1008900080838A81882371F012968C91818382E013
:1008A00090E0E80FF91F1082DF91CF91089590E05A
:1008B00080E0F7CF81E090E0F4CF90ED980F81E0F9
:1008C0009A3008F080E00895CF93DF9300D000D0F5
:1008D0000F92CDB7DEB79C011A8219821D821C824D
:1008E0001B82892B79F580E03BC089819A81892B15
:1008F00079F4E981FA81E20FF31F80818053E98165
:10090000FA81E20FF31F8A3098F180818136A0F5D9
:1009100089819A81019789F4E981FA81E20FF31FB5
:1009200080818053E981FA818A30A0F58C81E20FC1
:10093000F31F80539081890F8C8389819A8101965E
:100940009A838983E981FA81E20FF31F8081811103
:10095000CCCF8D819C818295807F890F8B838B8109
:100960000F900F900F900F900F90DF91CF910895FF
:10097000808180538D83CCCFE981FA81E20FF31F10
:100980008081873628F6E981FA81E20FF31F8081A2
:100990008755F0CFE20FF31F8081813670F2E98135
:1009A000FA81E20FF31F8081873638F6E981FA81F8
:1009B0008C81E20FF31F8755BDCFCF93DF9300D01B
:1009C000CDB7DEB71A8219821092B30A1092B40A18
:1009D0001092B50A81110CC080E38093B30A809312
:1009E000B40A1092B50A0F900F90DF91CF9108953D
:1009F000982F92959F7099838F708A8389818A300E
:100A000020F48981805D8093B30A89818A3038F02F
:100A10008981813120F48981895A8093B30A8A813E
:100A20008A3020F48A81805D8093B40A8A818A307A
:100A3000D0F28A818131B8F68A81895A8093B40ACA
:100A4000D2CFCF93DF9300D00F92CDB7DEB79C010A
:100A50001B821A8219821092B30A1092B40A109261
:100A6000B50A1092B60A892B69F480E38093B30A21
:100A70008093B40A1092B50A0F900F900F90DF91F7
:100A8000CF910895832F8F708983C90134E09695A3
:100A900087953A95E1F78F708A832F702B83898130
:100AA0008A30A8F48981805D8093B30A8A818A3074
:100AB00088F48A81805D8093B40A8B818A3068F4DF
:100AC0008B81805D8093B50A1092B60AD5CF89815B
:100AD000895AEACF8A81895AEECF8B81895AF2CF1F
:100AE0009C0190E080E0F901E80FF91F408141117D
:100AF00001C008950196F7CFEF92FF920F931F93D5
:100B0000CF93DF9300D0CDB7DEB78C014DB75EB782
:100B10005A8349830E9470059C010196ADB7BEB708
:100B2000A81BB90B0FB6F894BEBF0FBEADBF8DB7F3
:100B30009EB70196200F311F7C01FC0150E040E080
:100B4000DA01A00FB11F6C9121503109611121C050
:100B5000840F951FFC011082C8010E9470059C0142
:100B600090E080E0F801E80FF91F28173907B9F481
:100B70001082E981FA810FB6F894FEBF0FBEEDBF77
:100B80000F900F90DF91CF911F910F91FF90EF90F9
:100B90000895D9016C9161934F5F5F4FD1CFD70119
:100BA0004D917D0140830196DDCFEF92FF920F932F
:100BB0001F93CF93DF9300D000D00F92CDB7DEB755
:100BC00069837A838B839C83CA019A012F5F3F4F8D
:100BD00079018A010D56154F29813A814B815C813B
:100BE0002A30310541055105A0F4262F205DF8017A
:100BF00020838C56954FFC0110820F900F900F9020
:100C00000F900F90DF91CF911F910F91FF90EF9078
:100C1000089569817A818B819C812AE030E040E0EF
:100C200050E00E94060929833A834B835C836D83DD
:100C3000A70169817A818B819C810E94D505FD8104
:100C4000F05D2F2FF8012083D8CFCF93C091920A67
:100C50004FEF5FEF0E94D505CD32B1F482E99AE003
:100C60000097C9F0FC0190E080E02191211111C0B2
:100C7000FC01FF27EE56F54F9DE290838F5FE82F32
:100C8000F0E0EE56F54F108282E99AE0CF910C9495
:100C90007C050196EACF82E99AE0EACFCF93DF9311
:100CA000EC018A30910538F06AE070E00E94DE08BD
:100CB000CB010E944E06CE016AE070E00E94DE0881
:100CC000805DDF91CF910C9463038F929F92AF92DE
:100CD000BF92EF92FF921F93CF93DF93CDB7DEB712
:100CE0002E970FB6F894DEBF0FBECDBF6B877C8703
:100CF0008D879E878B859C85AD85BE85892B8A2BAC
:100D00008B2B91F480E32E960FB6F894DEBF0FBEC6
:100D1000CDBFDF91CF911F91FF90EF90BF90AF902B
:100D20009F908F900C94630310E08AE0882E912CA2
:100D3000A12CB12CA1E0B0E0AC0FBD1FA10FB11DE3
:100D40007D011F5F6B857C858D859E85A501940146
:100D50000E940609605DF70160838B859C85AD85E7
:100D6000BE852B873C874D875E870A97A105B10515
:100D700008F7115080F42E960FB6F894DEBF0FBE20
:100D8000CDBFDF91CF911F91FF90EF90BF90AF90BB
:100D90009F908F900895E1E0F0E0EC0FFD1FE10FD0
:100DA000F11D80810E946303E4CF0E94DD0483EB88
:100DB0009AE00C944D03AC0190E080E030E04115E6
:100DC000510531F0FA01E30FF11D2081211101C01D
:100DD000089560ED620F6A3030F06FE9620F66309F
:100DE000B8F769EA620F24E0880F991F2A95E1F7A6
:100DF000862B3F5FE4CFCF93DF9300D0CDB7DEB734
:100E00009A83898390E080E029813A818217930751
:100E100028F00F900F90DF91CF9108950196F4CFB5
:100E2000CF93DF93EC01209719F4DF91CF910895D0
:100E300080ED97E00E94FB062197F5CFCF93DF93DB
:100E400000D000D000D0CDB7DEB78D839E83F0E018
:100E500020E030E0A9018D819E81009731F0DC0116
:100E6000AF0FB11DEC91E1110AC0C90126960FB672
:100E7000F894DEBF0FBECDBFDF91CF910895E05350
:100E8000EA3098F7AAE0B0E00E94280969837A83E3
:100E90008B839C839B01AC012E0F311D411D511D85
:100EA000FF5FD9CF9C01FC012115310519F080812C
:100EB000811102C081E00895819180538A30A0F3AE
:100EC00080E008952F923F924F925F926F927F92AF
:100ED0008F929F92AF92BF92CF92DF92EF92FF924A
:100EE0000F931F93CF93DF9300D000D0CDB7DEB721
:100EF0001C010E94DD030B970CF068C0812C412C73
:100F00001C82A0E0B0E0912C712C612C512C21149A
:100F1000310459F0C101880D911DFC01208122236B
:100F200021F0205329832A30D0F0642D7C81CD011B
:100F30000F900F900F900F90DF91CF911F910F9115
:100F4000FF90EF90DF90CF90BF90AF909F908F90E9
:100F50007F906F905F904F903F902F9008958AE020
:100F6000A82EB12CC12CD12CE12CF12C00E010E0EA
:100F7000242D3C81AD01692D772D862D952D0E9464
:100F8000330959016A017B018C01298130E040E07D
:100F900050E060E070E080E090E00E948B09422E1B
:100FA0003C83DA01962E772E682E592E83942F3F9C
:100FB0003F4F4F4F5F4F610571058105910509F066
:100FC00008F4A5CF8DE79AE00E944D0360E070E041
:100FD00080E090E0ADCF1F93CF93DF9300D000D09F
:100FE00000D0CDB7DEB78D839E83ED81FE81309733
:100FF00009F454C08081882309F450C0FFEF11E048
:101000008D3211F0F1E010E020E030E0A90129C0BC
:10101000AAE0B0E00E94280969837A838B839C83CD
:101020002E2FEE0F330B20533109032E000C440BEF
:10103000550B260F371F481F591FF13049F4211552
:1010400080E83807410551055CF08FEF9FE71CC031
:10105000FF3F31F4213090E83907410551050CF587
:101060001F5FAD81BE81A10FB11DEC9180ED8E0F90
:101070008A3070F26F2FFF0F770B629FC001639F62
:10108000900D729F900D112426960FB6F894DEBF36
:101090000FBECDBFDF91CF911F91089590E080E00A
:1010A000F3CF80E090E8F0CF0F931F93CF93DF93BF
:1010B000CDB7DEB72B970FB6F894DEBF0FBECDBF0E
:1010C0001B8630E020E097FF05C09195819591093E
:1010D00021E030E00AE010E011C0EB8541E04E0F66
:1010E0004B8741E050E04C0F5D1F4E0F511DFA0140
:1010F000B8010E94F208805D8083CB01009769F7F8
:101100002130310549F4EB8581E08E0F8B87EC0FA0
:10111000FD2FF11D8DE281838B859FEF980F9B87BB
:1011200081110BC02B960FB6F894DEBF0FBECDBF5A
:10113000DF91CF911F910F910895EB8581E090E0B1
:101140008C0F9D1F8E0F911DFC0180810E946303F7
:10115000E3CF0E94180380E098EF0E94EB0082E04A
:101160008093000110E000E02FEF3FEF43E75AE0EB
:1011700070E060E090E080E00E94B8022FEF89E626
:1011800098E1215080409040E1F700C0000081E0EC
:10119000809300012FEF3FEF45E75AE066E470E0EF
:1011A0008EE190E00E94B8022FEF89E698E121508D
:1011B00080409040E1F700C00000FFCFAA1BBB1B9E
:1011C00051E107C0AA1FBB1FA617B70710F0A61B47
:1011D000B70B881F991F5A95A9F780959095BC0168
:1011E000CD01089597FB072E16F4009407D077FDE4
:1011F00009D00E94DE0807FC05D03EF49095819549
:101200009F4F0895709561957F4F0895A1E21A2E22
:10121000AA1BBB1BFD010DC0AA1FBB1FEE1FFF1F9A
:10122000A217B307E407F50720F0A21BB30BE40BEA
:10123000F50B661F771F881F991F1A9469F7609531
:101240007095809590959B01AC01BD01CF010895EB
:101250000E949409A59F900DB49F900DA49F800DAE
:10126000911D11240895DF93CF931F930F939A9D9F
:10127000F02D219FF00D8B9DF00D8A9DE02DF10D3D
:10128000039FF00D029FE00DF11D4E9DE00DF11D3D
:101290005E9DF00D4F9DF00D7F936F93BF92AF92C7
:1012A0005F934F93D5010E9494098B01AC01D70144
:1012B0000E949409EB01E80FF91FD6010E948209F0
:1012C0002F913F91D6010E949409C60FD71FE81FA6
:1012D000F91FAF91BF910E9482092F913F910E9407
:1012E0009409C60FD71FE81FF91FD6010E94940961
:1012F000E60FF71F9801BE01CF010F911F91CF910B
:10130000DF9108950E949409460F571FC81FD91FE7
:1013100008F4319608952A0D3B1D4C1D5D1D6E1D70
:101320007F1D801F911F0895A29FB001B39FC00130
:10133000A39F700D811D1124911DB29F700D811D01
:0A1340001124911D0895F894FFCFC9
:10134A00050000000000000000000000000000008E
:10135A000000000000000000000000000000000083
:10136A000000000000000000000000000000000073
:10137A000000000000000000000000000000000063
:10138A000000000000000000000000000000000053
:1019BA0000000000000000000000000000003030BD
:1019CA0030303030306040183E6666666666666360
:1019DA0001000000000000000000000000000000FC
:1019EA0000000000000000000000000000000000ED
:1019FA0000000000000000000000000000000000DD
:101A0A0000000000000000000000000000000000CC
:101A1A0000000000000000000000000000000000BC
:101A2A0000000000000000000000000000000000AC
:101A3A00000000000000000000000000000000009C
:101A4A00000000000000000000000000000000008C
:101A5A00000000000000000000000000000000007C
:101A6A00000000000000000000000000000000006C
:101A7A00000000000000000000000000000000005C
:101A8A00000000000000000000000000000000004C
:101A9A00000000000000000000000000000000003C
:101AAA00000000000000000000000000000000002C
:101ABA00000000005F00000007000700147F147F89
:101ACA0014122A7F2A2462640813235022554936A5
:101ADA0000000305000041221C00001C22410014E2
:101AEA00083E081408083E0808000030500008089C
:101AFA00080808000060600002040810203E4549FA
:101B0A00513E00407F42004649516162314B454196
:101B1A0021107F12141839454545273049494A3C56
:101B2A00030509710136494949361E294949060002
:101B3A0000363600000036560000412214081414FC
:101B4A00141414081422410006095101023E417975
:101B5A0049324649516162364949497F22414141E8
:101B6A003E1C2241417F414949497F010909097FB8
:101B7A007A4949413E7F0808087F00417F410001B8
:101B8A003F414020412214087F404040407F7F026D
:101B9A000C027F7F1008047F3E4141413E0609093D
:101BAA00097F5E2151413E462919097F3149494938
:101BBA004601017F01013F4040403F1F2040201F56
:101BCA003F4038403F63140814630708700807430E
:101BDA00454951610041417F002010080402007FFD
:101BEA004141000402010204404040404000040216
:101BFA0001007854545420384444487F20444444D3
:101C0A00387F4844443818545454380201097E082D
:101C1A003E5252520C780404087F00407D44000072
:101C2A003D444020004428107F00407F4100780452
:101C3A0018047C780404087C384444443808141492
:101C4A00147E7C18141408080404087C2454545480
:101C5A00482040443F047C2040403C1C2040201C3B
:101C6A003C4030403C44281028443C5050500C44DE
:101C7A004C546444004136080000007F000000080C
:101C8A0036410008100808100A0D7461626C65611B
:101C9A0078204E756D203A200020706F696E746549
:101CAA00723A2000207074722061646472657373E2
:101CBA003A2000730041424320313233004F5645E7
:101CCA00522053495A4544204E554D4245520D0A19
:021CDA00000008
:00000001FF
