:100000000C9434000C9451000C9451000C94510049
:100010000C9451000C9451000C9451000C9451001C
:100020000C9451000C9451000C9451000C9451000C
:100030000C9451000C9451000C9451000C945100FC
:100040000C9451000C9451000C9451000C945100EC
:100050000C9451000C9451000C9451000C945100DC
:100060000C9451000C94510011241FBECFEFD8E026
:10007000DEBFCDBF1AE0A0E0B1E0E2E1F3E102C0F3
:1000800005900D92AC35B107D9F72AE0ACE5BAE09E
:1000900001C01D92A238B207E1F70E94BB080C9480
:1000A00087090C9400002D982C980E9436032C9AF6
:1000B00008952D9A2C980E9436032C9A08952E9814
:1000C0002FEF81EE94E0215080409040E1F700C096
:1000D00000002E9A2FEF81EE94E021508040904056
:1000E000E1F700C0000081E00E9453002FEF82E59D
:1000F00097E0215080409040E1F700C0000081E18E
:100100000E9453002FEF82E597E0215080409040FD
:10011000E1F700C000008AE30E94530085E50E94D9
:10012000590089E20C9453002E982FEF81EE94E051
:10013000215080409040E1F700C000002E9A2FEF40
:100140008BED95E0215080409040E1F700C0000029
:1001500081E00E9453002FEF82E597E0215080401C
:100160009040E1F700C0000081E10E9453002FEFB2
:1001700082E597E0215080409040E1F700C0000008
:100180008AE30E94530085E50E94590086E30E949D
:10019000530088E40E94590083E10E94530089E2E1
:1001A0000E9453002FEF80E792E021508040904062
:1001B000E1F700C000000895CF92DF92EF92FF9226
:1001C0000F931F93CF93DF93D82EC92E162F072F8F
:1001D000F42EE52EE9018AE20E9453008C2D0E9444
:1001E00059008D2D0E9459008E2D0E9459008F2D8F
:1001F0000E9459008BE20E945300802F0E945900F8
:10020000812F0E9459008D2F0E9459008C2F0E942F
:1002100059008CE2DF91CF911F910F91FF90EF90E9
:10022000DF90CF900C945300282FFC018E2F821B5F
:10023000309719F091919111F9CF0895CF93DF93F1
:10024000EA012FED31E04FE351E00E94DC002D9AEE
:100250002C988D2F0E9436038C2F0E9436032C9AE7
:10026000DF91CF910895CF92DF92EF92FF92CF93DB
:10027000DF93EC012FED31E04FE351E070E060E0FF
:1002800090E080E00E94DC002D9A2C98C12C88E53B
:10029000D82E82E0E82EF12C8D2F0E9436038C2F71
:1002A0000E94360381E0C81AD108E108F108A1F7DD
:1002B0002C9ADF91CF91FF90EF90DF90CF9008952F
:1002C0002F923F924F925F926F927F928F929F9266
:1002D000AF92BF92CF92DF92EF92FF920F931F9354
:1002E000CF93DF93CDB7DEB728970FB6F894DEBF74
:1002F0000FBECDBF082F792E7B012D833E8380EE6C
:10030000840F8F3508F04FE3042E000C550B40523C
:10031000510924E1249FC001259F900D11249C01C7
:1003200020503F4F190167010F83788610E085E068
:10033000482E112309F443C01130F9F48091810A49
:10034000EF81F885849DE00DF11D1124F887EF837E
:1003500067013A822982912C812CB12CA12CE98150
:10036000FA81808190E00A2C02C0959587950A94C5
:10037000E2F780FF4EC0612C48C0123059F48091E2
:10038000810A6701F7E08F9FC00CD11C11240F83F5
:100390007886DFCF1330E9F68091810A2F81388586
:1003A000849D200D311D112438872F838091810A6F
:1003B000670137E0839FC00CD11C1124CACF6701AD
:1003C000E6CF8091810A2091810A8A9DB0018B9DA0
:1003D000700D11246C0D7D1D8B819C81680F791F20
:1003E000289DC001299D900D1124EF81F8858E0F65
:1003F0009F1F4D815E81850D911D0E941E015394AA
:100400008091810A5816E8F263948091810A6816F7
:10041000A8F13FEFA31AB30A87E0A816B10409F0C8
:100420009ECF9FEF891A990AE981FA813196FA8362
:10043000E983F5E08F16910409F08FCF1F5F25E067
:10044000220E311C143009F074CF28960FB6F894A0
:10045000DEBF0FBECDBFDF91CF911F910F91FF90F7
:10046000EF90DF90CF90BF90AF909F908F907F9054
:100470006F905F904F903F902F900895512C262DB4
:1004800030E03C832B83BCCF4F925F926F927F9280
:100490008F929F92AF92BF92CF92DF92EF92FF9294
:1004A0000F931F93CF93DF938C017B01722E632EEA
:1004B00080EE840F8F3508F04FE34052550B25E056
:1004C000249FC001259F900D11249C012459374F72
:1004D0006901B12CA12CD0E0C0E0F601808190E050
:1004E0000C2E02C0959587950A94E2F780FF32C0E2
:1004F000512C26C08091810A4091810A8C9FB001C5
:100500008D9F700D11246E0D7F1D680D791D4A9D04
:10051000C0014B9D900D1124800F911F472D562D2A
:10052000820F931F0E941E0143948091810A242D03
:10053000042C000C330B8217130609F0DCF65394DD
:100540008091810A852C052C000C990888151904C6
:1005500009F00CF52196C730D10509F0BECF2FEF79
:10056000A21AB20A3FEFC31AD30A85E0A816B10453
:1005700009F0B1CFDF91CF911F910F91FF90EF90D4
:10058000DF90CF90BF90AF909F908F907F906F90B3
:100590005F904F900895412CC8CF5F926F927F92E9
:1005A0008F929F92AF92BF92CF92DF92EF92FF9283
:1005B0000F931F93CF93DF93EC01B62EA72E6A0102
:1005C000922E832E702E612ECA010E941401760194
:1005D000E80EF11C85E0582ECE14DF0481F4DF9183
:1005E000CF911F910F91FF90EF90DF90CF90BF9030
:1005F000AF909F908F907F906F905F9008958091C3
:10060000810AF70142917F01072D162D292D382DE2
:100610006B2D7A2D823098F0CE010E9460014091BE
:10062000810A8091810A459DA00111244F5F5F4F8F
:10063000859D400D511D1124C40FD51FCDCFCE0176
:100640000E9444028091810A859DC00DD11D112414
:100650002196C2CF0E943B030E9430030C94940069
:1006600084B1876784B981E58CBD08958EBD0DB4D2
:1006700007FEFDCF08951092C50080E18093C4006D
:1006800082E08093C00086E08093C200E1ECF0E05D
:100690008081806180838081886080830895CF938A
:1006A000DF930F92CDB7DEB7898389818093C6002F
:1006B0000F90DF91CF9108958091C6000895FC01BD
:1006C0008081811101C008958091C00085FFFCCF19
:1006D00081918093C600F4CFE1ECF0E080818068E6
:1006E00080838FB780688FBF0895CF93DF930F9279
:1006F000CDB7DEB789838091C00085FFFCCF8981AB
:100700008093C6000F90DF91CF9108958091C00033
:1007100087FFFCCF8091C6000895CF93DF9300D070
:1007200000D000D00F92CDB7DEB7AC0180E3898353
:1007300088E78A831F82FE013196BE0163507109EA
:10074000CF01242F2F702A30B0F4205D258324E0C0
:10075000569547952A95E1F731976E177F0789F7E8
:100760000E945F0327960FB6F894DEBF0FBECDBF81
:10077000DF91CF910895295CE9CF9FEB980F81E03D
:100780009A3108F080E008959FE9980F9A3108F4B3
:10079000805208959FEB980F9A3108F4805E089577
:1007A0009FEB980F9A3110F00C94C4030C94CA0379
:1007B0008D3029F090EE980F81E0903608F480E0BB
:1007C000089590EE980F81E09F3508F080E008953D
:1007D00098EF980F81E0923008F080E00895FC01D6
:1007E00090E080E0309731F02191211101C008950F
:1007F0000196FACF0895EF92FF920F931F93CF9334
:10080000DF93EC018B010E94EF037C01C8010E9481
:10081000EF03E816F90699F48881F80181110BC0FD
:1008200081E0DF91CF911F910F91FF90EF9008959C
:100830009991981304C081918111FACFF1CF80E092
:10084000F0CFCF93DF93EB01009739F00E94EF03D5
:100850009C0181E02C173D0709F080E0DF91CF91EA
:100860000895FC01892B19F081E09081961380E0B6
:100870000895FC01892B69F031968191811102C0A4
:1008800081E0089590ED980F9A30B8F38156863044
:10089000A0F380E00895CF93DF93EC01FB01DA0130
:1008A0000097B9F029812223A1F0A80FB91F119652
:1008B0008C91119780838A81882371F012968C9194
:1008C000818382E090E0E80FF91F1082DF91CF91E1
:1008D000089590E080E0F7CF81E090E0F4CF90EDD4
:1008E000980F81E09A3008F080E00895CF93DF936D
:1008F00000D000D00F92CDB7DEB79C011A821982CA
:100900001D821C821B82892B79F580E03BC0898186
:100910009A81892B79F4E981FA81E20FF31F8081B2
:100920008053E981FA81E20FF31F8A3098F18081C8
:100930008136A0F589819A81019789F4E981FA814C
:10094000E20FF31F80818053E981FA818A30A0F59C
:100950008C81E20FF31F80539081890F8C838981F2
:100960009A8101969A838983E981FA81E20FF31FC4
:1009700080818111CCCF8D819C818295807F890F70
:100980008B838B810F900F900F900F900F90DF91C2
:10099000CF910895808180538D83CCCFE981FA81F6
:1009A000E20FF31F8081873628F6E981FA81E20F92
:1009B000F31F80818755F0CFE20FF31F80818136CE
:1009C00070F2E981FA81E20FF31F8081873638F6F1
:1009D000E981FA818C81E20FF31F8755BDCFCF9358
:1009E000DF9300D0CDB7DEB71A82198210927D0A4C
:1009F00010927E0A10927F0A81110CC080E38093CE
:100A00007D0A80937E0A10927F0A0F900F90DF91EB
:100A1000CF910895982F92959F7099838F708A83B4
:100A200089818A3020F48981805D80937D0A898163
:100A30008A3038F08981813120F48981895A809304
:100A40007D0A8A818A3020F48A81805D80937E0AC3
:100A50008A818A30D0F28A818131B8F68A81895AB6
:100A600080937E0AD2CFCF93DF9300D00F92CDB781
:100A7000DEB79C011B821A82198210927D0A1092A5
:100A80007E0A10927F0A1092800A892B69F480E313
:100A900080937D0A80937E0A10927F0A0F900F90B8
:100AA0000F90DF91CF910895832F8F708983C901B3
:100AB00034E0969587953A95E1F78F708A832F7089
:100AC0002B8389818A30A8F48981805D80937D0A97
:100AD0008A818A3088F48A81805D80937E0A8B8146
:100AE0008A3068F48B81805D80937F0A1092800A3F
:100AF000D5CF8981895AEACF8A81895AEECF8B81F5
:100B0000895AF2CF9C0190E080E0F901E80FF91FCB
:100B10004081411101C008950196F7CFEF92FF92F5
:100B20000F931F93CF93DF9300D0CDB7DEB78C0127
:100B30004DB75EB75A8349830E9482059C01019696
:100B4000ADB7BEB7A81BB90B0FB6F894BEBF0FBEAA
:100B5000ADBF8DB79EB70196200F311F7C01FC0100
:100B600050E040E0DA01A00FB11F6C912150310933
:100B7000611121C0840F951FFC011082C8010E94E1
:100B800082059C0190E080E0F801E80FF91F28172A
:100B90003907B9F41082E981FA810FB6F894FEBFE3
:100BA0000FBEEDBF0F900F90DF91CF911F910F916E
:100BB000FF90EF900895D9016C9161934F5F5F4F63
:100BC000D1CFD7014D917D0140830196DDCFEF92CA
:100BD000FF920F931F93CF93DF9300D000D00F921B
:100BE000CDB7DEB769837A838B839C83CA019A0170
:100BF0002F5F3F4F79018A01035A154F29813A81AE
:100C00004B815C812A30310541055105A0F4262F26
:100C1000205DF8012083825A954FFC0110820F90CD
:100C20000F900F900F900F90DF91CF911F910F9128
:100C3000FF90EF90089569817A818B819C812AE0F1
:100C400030E040E050E00E94EA0829833A834B8379
:100C50005C836D83A70169817A818B819C810E946D
:100C6000E705FD81F05D2F2FF8012083D8CFCF93CA
:100C7000C0915C0A4FEF5FEF0E94E705CD32B1F4FF
:100C80008CE59AE00097C9F0FC0190E080E02191AA
:100C9000211111C0FC01FF27E45AF54F9DE290831A
:100CA0008F5FE82FF0E0E45AF54F10828CE59AE070
:100CB000CF910C948E050196EACF8CE59AE0EACFAD
:100CC000CF93DF93EC018A30910538F06AE070E051
:100CD0000E94C208CB010E946006CE016AE070E06B
:100CE0000E94C208805DDF91CF910C9475038F92B2
:100CF0009F92AF92BF92EF92FF921F93CF93DF9399
:100D0000CDB7DEB72E970FB6F894DEBF0FBECDBFBE
:100D10006B877C878D879E878B859C85AD85BE85FF
:100D2000892B8A2B8B2B91F480E32E960FB6F894A7
:100D3000DEBF0FBECDBFDF91CF911F91FF90EF902F
:100D4000BF90AF909F908F900C94750310E08AE055
:100D5000882E912CA12CB12CA1E0B0E0AC0FBD1FCE
:100D6000A10FB11D7D011F5F6B857C858D859E85E3
:100D7000A50194010E94EA08605DF70160838B85FC
:100D80009C85AD85BE852B873C874D875E870A97FE
:100D9000A105B10508F7115080F42E960FB6F8940E
:100DA000DEBF0FBECDBFDF91CF911F91FF90EF90BF
:100DB000BF90AF909F908F900895E1E0F0E0EC0F2E
:100DC000FD1FE10FF11D80810E947503E4CF0E9499
:100DD000EF048DE79AE00C945F03AC0190E080E0B3
:100DE00030E04115510531F0FA01E30FF11D20818A
:100DF000211101C0089560ED620F6A3030F06FE993
:100E0000620F6630B8F769EA620F24E0880F991F15
:100E10002A95E1F7862B3F5FE4CFCF93DF9300D095
:100E2000CDB7DEB79A83898390E080E029813A814B
:100E30008217930728F00F900F90DF91CF910895BC
:100E40000196F4CFCF93DF93EC01209719F4DF9153
:100E5000CF91089580ED97E00E940D072197F5CF7F
:100E6000CF93DF9300D000D000D0CDB7DEB78D8315
:100E70009E83F0E020E030E0A9018D819E81009703
:100E800031F0DC01AF0FB11DEC91E1110AC0C901D5
:100E900026960FB6F894DEBF0FBECDBFDF91CF917F
:100EA0000895E053EA3098F7AAE0B0E00E940C09F8
:100EB00069837A838B839C839B01AC012E0F311D48
:100EC000411D511DFF5FD9CF9C01FC01211531054A
:100ED00019F08081811102C081E0089581918053D1
:100EE0008A30A0F380E008952F923F924F925F9254
:100EF0006F927F928F929F92AF92BF92CF92DF922A
:100F0000EF92FF920F931F93CF93DF9300D000D007
:100F1000CDB7DEB71C010E94EF030B970CF068C041
:100F2000812C412C1C82A0E0B0E0912C712C612C12
:100F3000512C2114310459F0C101880D911DFC017F
:100F40002081222321F0205329832A30D0F0642DE0
:100F50007C81CD010F900F900F900F90DF91CF917A
:100F60001F910F91FF90EF90DF90CF90BF90AF90C7
:100F70009F908F907F906F905F904F903F902F90B9
:100F800008958AE0A82EB12CC12CD12CE12CF12C93
:100F900000E010E0242D3C81AD01692D772D862DD8
:100FA000952D0E94170959016A017B018C01298145
:100FB00030E040E050E060E070E080E090E00E94CF
:100FC0006F09422E3C83DA01962E772E682E592E19
:100FD00083942F3F3F4F4F4F5F4F61057105810550
:100FE000910509F008F4A5CF87E49AE00E945F0319
:100FF00060E070E080E090E0ADCF1F93CF93DF938F
:1010000000D000D000D0CDB7DEB78D839E83ED81B8
:10101000FE81309709F454C08081882309F450C0C0
:10102000FFEF11E08D3211F0F1E010E020E030E050
:10103000A90129C0AAE0B0E00E940C0969837A8363
:101040008B839C832E2FEE0F330B20533109032EFD
:10105000000C440B550B260F371F481F591FF1304A
:1010600049F4211580E83807410551055CF08FEF00
:101070009FE71CC0FF3F31F4213090E8390741055C
:1010800051050CF51F5FAD81BE81A10FB11DEC9123
:1010900080ED8E0F8A3070F26F2FFF0F770B629FFB
:1010A000C001639F900D729F900D112426960FB67C
:1010B000F894DEBF0FBECDBFDF91CF911F91089591
:1010C00090E080E0F3CF80E090E8F0CF0F931F93A3
:1010D000CF93DF93CDB7DEB72B970FB6F894DEBF73
:1010E0000FBECDBF1B8630E020E097FF05C0919575
:1010F0008195910921E030E00AE010E011C0EB8514
:1011000041E04E0F4B8741E050E04C0F5D1F4E0F0A
:10111000511DFA01B8010E94D608805D8083CB0181
:10112000009769F72130310549F4EB8581E08E0F96
:101130008B87EC0FFD2FF11D8DE281838B859FEF57
:10114000980F9B8781110BC02B960FB6F894DEBFCA
:101150000FBECDBFDF91CF911F910F910895EB8509
:1011600081E090E08C0F9D1F8E0F911DFC0180810E
:101170000E947503E3CF0E942A0380E098EF0E944B
:101180003301FFCFAA1BBB1B51E107C0AA1FBB1F26
:10119000A617B70710F0A61BB70B881F991F5A9503
:1011A000A9F780959095BC01CD01089597FB072E76
:1011B00016F4009407D077FD09D00E94C20807FCFE
:1011C00005D03EF4909581959F4F08957095619557
:1011D0007F4F0895A1E21A2EAA1BBB1BFD010DC073
:1011E000AA1FBB1FEE1FFF1FA217B307E407F507D7
:1011F00020F0A21BB30BE40BF50B661F771F881FB3
:10120000991F1A9469F760957095809590959B0148
:10121000AC01BD01CF0108950E947809A59F900DF2
:10122000B49F900DA49F800D911D11240895DF930C
:10123000CF931F930F939A9DF02D219FF00D8B9DBF
:10124000F00D8A9DE02DF10D039FF00D029FE00D42
:10125000F11D4E9DE00DF11D5E9DF00D4F9DF00DB9
:101260007F936F93BF92AF925F934F93D5010E948C
:1012700078098B01AC01D7010E947809EB01E80FD6
:10128000F91FD6010E9466092F913F91D6010E9455
:101290007809C60FD71FE81FF91FAF91BF910E94B1
:1012A00066092F913F910E947809C60FD71FE81F4A
:1012B000F91FD6010E947809E60FF71F9801BE01B9
:1012C000CF010F911F91CF91DF9108950E9478096E
:1012D000460F571FC81FD91F08F4319608952A0DCD
:1012E0003B1D4C1D5D1D6E1D7F1D801F911F0895B0
:1012F000A29FB001B39FC001A39F700D811D112457
:10130000911DB29F700D811D1124911D0895F894B7
:02131000FFCF0D
:1013120000000000000000000000000000000000CB
:1013220000000000000000000000000000000000BB
:1013320000000000000000000000000000000000AB
:10134200000000000000000000000000000000009B
:1019820000000000000000000000000000303030C5
:10199200303030306040183E6666666666666301C7
:1019A2000000000000000000000000000000000035
:1019B2000000000000000000000000000000000025
:1019C2000000000000000000000000000000000015
:1019D2000000000000000000000000000000000005
:1019E20000000000000000000000000000000000F5
:1019F20000000000000000000000000000000000E5
:101A020000000000000000000000000000000000D4
:101A120000000000000000000000000000000000C4
:101A220000000000000000000000000000000000B4
:101A320000000000000000000000000000000000A4
:101A42000000000000000000000000000000000094
:101A52000000000000000000000000000000000084
:101A62000000000000000000000000000000000074
:101A72000000000000000000000000000000000064
:101A82000000005F00000007000700147F147F14AD
:101A9200122A7F2A246264081323502255493600F1
:101AA200000305000041221C00001C224100140812
:101AB2003E081408083E08080000305000080808D4
:101AC2000808000060600002040810203E454951E9
:101AD2003E00407F42004649516162314B454121FF
:101AE200107F12141839454545273049494A3C03AD
:101AF2000509710136494949361E2949490600003E
:101B02003636000000365600004122140814141420
:101B12001414081422410006095101023E41794978
:101B2200327E1111117E364949497F224141413E9F
:101B32001C2241417F414949497F010909097F7AB4
:101B42004949413E7F0808087F00417F4100013F2B
:101B5200414020412214087F404040407F7F020CD8
:101B6200027F7F1008047F3E4141413E0609090978
:101B72007F5E2151413E462919097F314949494633
:101B820001017F01013F4040403F1F2040201F3F95
:101B92004038403F63140814630708700807434540
:101BA2004951610041417F002010080402007F4139
:101BB200410004020102044040404040000402018E
:101BC200007854545420384444487F2044444438D4
:101BD2007F4844443818545454380201097E083E60
:101BE2005252520C780404087F00407D4400003DAC
:101BF200444020004428107F00407F4100780418B0
:101C0200047C780404087C384444443808141414CE
:101C12007E7C18141408080404087C245454544884
:101C22002040443F047C2040403C1C2040201C3C7F
:101C32004030403C44281028443C5050500C444C06
:101C4200546444004136080000007F00000008365A
:101C5200410008100808104F5645522053495A4572
:0C1C620044204E554D4245520D0A000032
:00000001FF
