:100000000C9472000C9493000C9493000C94930045
:100010000C9493000C9493000C9493000C94930014
:100020000C9493000C9493000C9493000C94930004
:100030000C9493000C9493000C9493000C949300F4
:100040000C9493000C9493000C9493000C949300E4
:100050000C9493000C9493000C9493000C949300D4
:100060000C9493000C9493000C9493000C949300C4
:100070000C9493000C9493000C9493000C949300B4
:100080000C9493000C9493000C9493000C949300A4
:100090000C9493000C9493000C9493000C94930094
:1000A0000C9493000C9493000C9493000C94930084
:1000B0000C9493000C9493000C9493000C94930074
:1000C0000C9493000C9493000C9493000C94930064
:1000D0000C9493000C9493000C9493000C94930054
:1000E0000C94930011241FBECFEFD1E2DEBFCDBF31
:1000F00000E00CBF13E0A0E0B2E0E6E0F8E000E0D2
:100100000BBF02C007900D92A836B107D9F723E0C4
:10011000A8E6B3E001C01D92AA36B207E1F70E943B
:100120007B030C9401040C94000030E020E08091EB
:1001300008018C638093080180910801223069F1E5
:10014000233069F1213039F18F7D809308018AE1F4
:100150008A95F1F700C0789B24C0799B2DC07A9BCB
:100160002EC07B9B2FC07C9B30C07D9B31C07E9B73
:1001700032C07F9B33C08091060180FF32C08091E6
:10018000060181FF31C02F5F3F4F2430310579F6E2
:100190008FEF9FEF08958F7ED8CF877FD6CF8B7F4D
:1001A000D4CF90E080E06AE0629FA001639F500D91
:1001B0001124840F951F089581E090E0F4CF82E030
:1001C00090E0F1CF83E090E0EECF84E090E0EBCFE1
:1001D00085E090E0E8CF86E090E0E5CF87E090E032
:1001E000E2CF88E090E0DFCF89E090E0DCCFCF93F2
:1001F00082E10E94270385FB882780F990910602FF
:10020000981721F18FE19EE40197F1F700C00000FB
:1002100082E10E94270385FBCC27C0F9809106026A
:10022000C817A1F0C11107C0809168038130A9F0FF
:1002300078F08230A9F0C09306029FEF29EF80E0AA
:10024000915020408040E1F700C00000CF91089518
:100250008FE292E00E94AC01EECF85E492E0FACF0B
:100260008BE592E0F7CF0F931F93CF9381E792E056
:100270000E94AC0186E792E00E94AC018AE792E01E
:100280000E94AC0184E992E00E94AC0100E012E01F
:10029000C0E0809168038C1315C087E992E00E944A
:1002A000AC01F801819191918F010E94AC0182E42F
:1002B00092E00E94AC01CF5FC33059F7CF911F91FC
:1002C0000F9108958AE992E0EACFCF9382E10E94EC
:1002D000270386FBCC27C0F990916903913069F41C
:1002E000C1110BC09091680387FF0FC0911109C025
:1002F00082E0809368030E943301C0936903CF9129
:100300000895915090936803F6CF9F5F9330D0F398
:1003100010926803F0CF1092C50080E18093C40072
:1003200088E98093C100E2ECF0E080818660808300
:10033000E0ECF0E080818260808308959091C000BD
:1003400095FFFCCF8093C60008958091C00087FF81
:10035000FCCF8091C6000895CF93DF93EC01899183
:10036000811103C0DF91CF9108950E949E01F7CFC4
:10037000CF93DF93CDB7DEB764970FB6F894DEBFA7
:100380000FBECDBF91E1EDECF2E0DE0111960190E0
:100390000D929A95E1F7E82FE295EF7021E030E0B9
:1003A0002C0F3D1F2E0F311DF90190819A8B8F70FC
:1003B000E1E0F0E0EC0FFD1FE80FF11D80818B8B79
:1003C0001C8ACE0142960E94AC0164960FB6F89446
:1003D000DEBF0FBECDBFDF91CF910895982F80ED86
:1003E000890F8A3070F08FEB890F863018F489EC12
:1003F000890F08958FE9890F863010F489EAF8CFC4
:1004000080E0089590ED980F9A3040F08F7D9FEB3B
:10041000980F81E0963018F080E0089581E008950B
:10042000CF92DF92EF92FF920F931F93CF93DF93C0
:1004300000D000D000D01F92CDB7DEB78C0197FF5F
:1004400030C08DE20E949E01119501951109CE01E7
:1004500001967C01FC018AE0C82ED12C9F012E1947
:100460003F09C801B6010E94D903805D81938B01C9
:10047000672BA1F789010F5F1F4F0E0D1F1DE0169F
:10048000F10611F52A960FB6F894DEBF0FBECDBF68
:10049000DF91CF911F910F91FF90EF90DF90CF9060
:1004A0000895892BA1F680E32A960FB6F894DEBF53
:1004B0000FBECDBFDF91CF911F910F91FF90EF90B5
:1004C000DF90CF900C949E01F80182918F010E94E1
:1004D0009E01D5CFECEBF0E0808184608083E9EB76
:1004E000F0E080818C7F808388E48093B800089559
:1004F00084E98093BC008091BC0084FDFCCF08950A
:1005000084E88093BC008091BC0087FFFCCF809181
:10051000BB0008958093BB0084E88093BC00809169
:10052000BC0087FFFCCF8091B900887F883231F012
:100530008EED92E00E94AC010C9478020895CF9366
:10054000DF93CDB7DEB764970FB6F894DEBF0FBE6A
:10055000CDBF91E1EDECF2E0DE01119601900D923C
:100560009A95E1F7E82FE295EF7021E030E02C0F4B
:100570003D1F2E0F311DF90190819A8B8F70E1E0A4
:10058000F0E0EC0FFD1FE80FF11D80818B8B1C8AC2
:10059000CE0142960E94AC0164960FB6F894DEBF7D
:1005A0000FBECDBFDF91CF91089594EA9093BC0028
:1005B00040EA56E861E070E09091BC0097FF16C0F9
:1005C0009091B900987F9830E1F09091B900987FB0
:1005D0009031B9F082E093E00E94AC018091B900C3
:1005E000887F0E949F0284E992E007C04150510930
:1005F0006109710909F782EF92E00E94AC0180E085
:1006000008958093BB0094E89093BC0040EA56E8BC
:1006100061E070E09091BC0097FF0AC080FD10C0BF
:100620008091B900887F883181F080E293E0D4CF57
:10063000415051096109710969F781E193E0DDCF0A
:100640008091B900887F803481F781E00895CF934D
:10065000DF93D82F80E40E94D502C82F882359F059
:100660008D2F0E948A0281E40E94D502C82F811139
:1006700006C00E9478028C2FDF91CF91089584E804
:100680008093BC008091BC0087FFFCCFC091BB0071
:10069000F0CFCF93DF93D82FC62F81E393E00E9452
:1006A000AC0180E40E94D5028823D1F08DE393E071
:1006B0000E94AC018D2F0E948A0289E493E00E947F
:1006C000AC018C2F0E948A0284E593E00E94AC0169
:1006D0000E94780281E693E0DF91CF910C94AC0107
:1006E000DF91CF9108956FEF80E00E9449036FEF93
:1006F0008CE00C9449030E948B010E946A020E94C4
:1007000073030E943301809107018C63809307017A
:10071000809108018C638093080180B310BA81B383
:100720008FEF81BB809107018C7F809307018091BF
:100730000801836080930801369B35C081E0809377
:10074000690381B1856081B982B18A7F82B90C98D1
:100750001498CAE0D0E01AE00E9465010E94F700F8
:100760000E94950097FDF8CFBE010E94D903FC01BD
:10077000619FE00DF11D1124E95FFD4F80818A30FA
:10078000A9F482E492E00E94AC012FEF89EF90E09F
:10079000215080409040E1F700C000000E94950089
:1007A00097FFFCCFD9CF10926903CBCF0E949E0157
:1007B000ECCF97FB072E16F4009407D077FD09D0F5
:1007C0000E94ED0307FC05D03EF4909581959F4F64
:1007D0000895709561957F4F0895AA1BBB1B51E149
:1007E00007C0AA1FBB1FA617B70710F0A61BB70BA1
:1007F000881F991F5A95A9F780959095BC01CD0146
:060800000895F894FFCFFB
:100806009D02AD02BD0201313233343536373839F7
:100816003051574552545955494F50415344464714
:10082600484A4B4C0A5A584356424E4D20000059EE
:100836006F752063686F6F7365206F7074696F6E74
:1008460020310A0D00596F752063686F6F7365203C
:100856006F7074696F6E20320A0D00596F752063D0
:10086600686F6F7365206F7074696F6E20330A0D41
:10087600001B5B324A001B5B48003D3D3D3D3D3D54
:100886003D3D3D3D204D454E55203D3D3D3D3D3D8B
:100896003D3D3D3D0D0A003E20002020004F5054B6
:1008A600494F4E204E554D45524F2031004F505422
:1008B600494F4E204E554D45524F2032004F505411
:1008C600494F4E204E554D45524F20330030313260
:1008D600333435363738396162636465660065726C
:1008E600726F72204D545F444154415F41434B0A3D
:1008F6000D0053544152542054494D454F55540D03
:100906000A005354415254204552524F52203A2025
:1009160000414444522054494D454F55540D0A0058
:1009260041444452455353204552524F52203A2097
:10093600006D63702073746172740D0A00616464E3
:10094600722073656E740D0A007265672073656E9A
:10095600740D0A0076616C75652073656E740D0AF8
:080966000073746F700D0A00AC
:00000001FF
