:100000000C9472000C948B000C948B000C948B005D
:100010000C948B000C948B000C948B000C948B0034
:100020000C948B000C948B000C948B000C948B0024
:100030000C948B000C948B000C948B000C948B0014
:100040000C948B000C948B000C948B000C948B0004
:100050000C948B000C948B000C948B000C948B00F4
:100060000C948B000C948B000C948B000C948B00E4
:100070000C948B000C948B000C948B000C948B00D4
:100080000C948B000C948B000C948B000C948B00C4
:100090000C948B000C948B000C948B000C948B00B4
:1000A0000C948B000C948B000C948B000C948B00A4
:1000B0000C948B000C948B000C948B000C948B0094
:1000C0000C948B000C948B000C948B000C948B0084
:1000D0000C948B000C948B000C948B000C948B0074
:1000E0000C948B0011241FBECFEFD1E2DEBFCDBF39
:1000F00000E00CBF14E0A0E0B2E0EEE0FBE000E0C6
:100100000BBF02C007900D92A430B107D9F70E942F
:10011000A0040C9485050C9400008F929F92AF92DE
:10012000BF92CF92DF92EF92FF920F931F93CF93E4
:10013000DF93F52EB32E90EE980F9B3308F080E2FC
:1001400038E08302C00111248D5E9E4F860F911D01
:10015000FC01C081D12CC12CD0E0C095D095142FCA
:10016000E22ECE010C2C02C0959587950A94E2F7F9
:100170009E2C8B2C80FF02C0912E8F2CA12CA012C4
:1001800014C0FFEFCF1ADF0A38E0C316D10449F7D5
:10019000DF91CF911F910F91FF90EF90DF90CF9063
:1001A000BF90AF909F908F900895882D0E949004EB
:1001B000892D0E949004A394E2CF272F70E0762F20
:1001C00066276627787F98E0299F90011124207E7A
:1001D0003770622B732B8695869586959B01282B0D
:1001E000C90108952D9881E00C9490042D9880E128
:1001F0000E9490048FE19EE40197F1F700C0000097
:1002000008952D9881E10E9490042FEF8BED95E0E9
:10021000215080409040E1F700C0000008952D98E3
:1002200089E20C9490040F931F93CF93DF93182FC0
:10023000092FEB012D988AE20E9490042D9A802FBD
:100240000E949004812F0E9490048D2F0E949004A0
:100250008C2FDF91CF911F910F910C9490040F93ED
:100260001F93CF93DF93182F092FEB012D988BE26B
:100270000E9490042D9A802F0E949004812F0E944A
:1002800090048D2F0E9490048C2FDF91CF911F91AD
:100290000F910C949004AF92BF92CF92DF92EF92A5
:1002A000FF920F931F93CF93DF93CDB7DEB7609785
:1002B0000FB6F894DEBF0FBECDBFA982BA82ED8221
:1002C000FE8229873A876D877E876D857E858D8141
:1002D0009E810E94130169857A8589819A81609641
:1002E0000FB6F894DEBF0FBECDBFDF91CF911F9147
:1002F0000F91FF90EF90DF90CF90BF90AF900C9454
:100300002F012D988CE20C9490047F928F929F92F3
:10031000AF92BF92CF92DF92EF92FF920F931F9313
:10032000CF93DF93CDB7DEB768970FB6F894DEBFF3
:100330000FBECDBF298B3A8B4B8B5C8B6D8B7E8B2D
:100340008F8B988F7E2C8F2C902E49895A896B89A0
:100350007C898D899E89AF89B88DA42E49835A8363
:100360006B837C83E82E8D839E83AF83B8874F5F3A
:100370005F4F6F4F7F4F242F49875A876B877C874A
:100380000196A11DB11D682F8D879E87AF87B88B01
:10039000BA80CB80DC80FE800F8118853A854B8542
:1003A0005C857E858F8598890E944B010E94810122
:1003B0002D9A672D782D892D0E94DD0068960FB645
:1003C000F894DEBF0FBECDBFDF91CF911F910F918B
:1003D000FF90EF90DF90CF90BF90AF909F908F9065
:1003E0007F900C9490042F923F924F925F926F9265
:1003F0007F928F929F92AF92BF92CF92DF92EF92B5
:10040000FF920F931F93CF93DF93CDB7DEB76D9716
:100410000FB6F894DEBF0FBECDBF2A2CA9823B2CAD
:10042000BA824C2CCB825D2CDC826E2CED827F2C30
:10043000FE82802E0F83912E1887298B29873F8B70
:100440003A87488F4B87598F5C876A8F6D877B8F80
:100450007E878C8F8F879D8F988B6BA97CA98DA9A8
:100460000E94DD008D8B9E8B51016201730184011E
:1004700029893F89488D598D6A8D7B8D8C8D9D8D05
:100480000E944B010E9481012D9A412C512C320176
:1004900029853A854B855C852F5F3F4F4F4F5F4FD6
:1004A00089819A81AB81BC81281B390B4A0B5B0B7C
:1004B0008D859E85AF85B8890196A11DB11D8D8062
:1004C0009E80AF80B8847C018D01E818F9080A0984
:1004D0001B09C801B7010E941A054616570668068F
:1004E0007906C8F06D960FB6F894DEBF0FBECDBF8B
:1004F000DF91CF911F910F91FF90EF90DF90CF9000
:10050000BF90AF909F908F907F906F905F904F9033
:100510003F902F9008958E890E9490048D890E94AB
:1005200090040FEF401A500A600A700AB1CF2F9260
:100530003F924F925F926F927F928F929F92AF9273
:10054000BF92CF92DF92EF92FF920F931F93CF93C0
:10055000DF93CDB7DEB7E8970FB6F894DEBF0FBED6
:10056000CDBF298B3A8B4B8B5C8B6D8B7E8B8F8BAE
:10057000988F18014D885E886F88788C4D8E5E8EBE
:100580006F8E78A22F967FAC2F97672C712C7DA64B
:100590006CA62F964FAC2F9728E0429EC0011124E5
:1005A0002C01990F660877084DA25EA26FA278A66B
:1005B00080E491E0A0E0B0E09C01AD014D8C5E8C48
:1005C0006F8C78A02419350946095709298F3A8F6D
:1005D0004B8F5C8FCA01B9012DA13EA14FA158A537
:1005E0000E943E053AA329A32115310599F1F8018E
:1005F00001900020E9F73197CF01801B910BB901E1
:100600000E942A058B01892B11F00F5F1F4F49882B
:100610005A886B887C88B6018E2D0E94DD00182FC9
:1006200098AFB4018A2D0E94DD000BA7198E2D8D85
:100630003E8D4F8D58A1215031094109510929ABF7
:100640003AAB4BAB5CAB8DAB9EAB1FAB798D8BA547
:10065000781319C0E8960FB6F894DEBF0FBECDBF71
:10066000DF91CF911F910F91FF90EF90DF90CF908E
:10067000BF90AF909F908F907F906F905F904F90C2
:100680003F902F90089569A17AA1C1010E947A0537
:100690004C01A42C49825A826B827C82ED8C4D8D58
:1006A0005E8D6F8D78A14D835E836F8378876DA19A
:1006B0007EA18FA198A5460E571E681E791ED301F4
:1006C000C2010197A109B109282F89879A87AB87B1
:1006D000BC87ACA5BDA58A9EC0018B9E900D9A9E3D
:1006E000900D112433E0880F991F3A95E1F749A93D
:1006F0005AA96BA97CA9480F591F611D711DDB0107
:10070000CA01642F8D879E87AF87B88BBA80CB8054
:10071000DC80FE800F8118853A854B855C857E855F
:100720008F8598890E944B010E9481012D9AF12C9E
:10073000E12CB101680D791D7FA76EA778AD78AB6C
:10074000B12C3BC0ABA1BCA1ED91BCA3ABA380EE8F
:100750008E0F8B3308F0E0E2E052B8E0EB9FF0013F
:100760001124ED5EFD4FEE0DFF1D0081D12CC12C3B
:1007700010E000951095C8010C2C02C09595879546
:100780000A94E2F780FF21C02FA929A738A93AA728
:10079000A12C2F966FAD2F976A111CC07FEFC71A3F
:1007A000D70A88E0C816D10431F7AEA5BFA52BA1A2
:1007B0003CA1A217B30731F6B3942F963FAD2F9704
:1007C0003B1581F03CA22BA2F0CF4DA949A75EA911
:1007D0005AA7DECF8AA50E94900489A50E949004A2
:1007E000A394D7CF4FEFE41AF40A58E0E516F104CA
:1007F00009F0A6CF280C391C698D6F5F698F26CF51
:10080000CF93C82F2D9886E30E9490042D9A8C2FA9
:10081000CF910C949004CF93C82F2D988AE30E9417
:1008200090042D9A8C2FCF910C9490042E982FEF3A
:1008300081EE94E0215080409040E1F700C000003C
:100840002E9A2FEF81EE94E0215080409040E1F706
:1008500000C000000E94F2008FE19EE40197F1F7D2
:1008600000C000000E9401018FE19EE40197F1F7B2
:1008700000C0000088E40E94000485E090E00E942F
:100880000B040C940F019C018CB580658CBD20314C
:10089000310511F184F424303105B9F044F4203CE1
:1008A0008FEF3807D1F12230310529F10895283032
:1008B000310539F108952032310549F120343105EF
:1008C00089F02C313105A1F008958CB58C7F8CBD59
:1008D0008DB58E7F8DBD08958CB58D7F8CBD8CB50B
:1008E0008160F5CF8CB58E7F8CBD8CB58260EFCFEB
:1008F0008CB58360ECCF8CB58C7F8CBD8DB5816061
:10090000E9CF8CB58D7F8CBD8CB58160F6CF8CB571
:100910008E7F8CBD8CB58260F0CF8CB58360EDCFBF
:100920008EBD0DB407FEFDCF0895FC01808160955A
:10093000682360830895FC018081862B808308955D
:10094000CDB7DEB768970FB6F894DEBF0FBECDBF48
:1009500084B18F6684B985B1816685B982E090E003
:100960000E94430461E070E085E290E00E949504FB
:100970000E94160461E070E085E290E00E949B0412
:1009800080E1E0E0F2E0DE01119601900D928A959F
:10099000E1F761E070E085E290E00E9495041F922B
:1009A0001F921F92A980BA80CB80DC80ED80FE80F0
:1009B0000F81188529853A854B855C856D857E85F7
:1009C0008F8598890E94F30161E070E085E290E0F4
:1009D0000E949B04C0901002D0901102E09012027D
:1009E000198A1A8A1B8A1C8A1D8A1E8A1F8A188ED7
:1009F00061E070E085E290E00E94950481E08F93D1
:100A0000812C912CA12C0BEE13E029893A894B897A
:100A10005C896D897E898F89988D0E94970261E03B
:100A200070E085E290E00E949B040F900F900F9081
:100A30000F90FFCFDB018F939F930E946005BF91C2
:100A4000AF91A29F800D911DA39F900DB29F900D1D
:100A500011240895AA1BBB1B51E107C0AA1FBB1F8D
:100A6000A617B70710F0A61BB70B881F991F5A953A
:100A7000A9F780959095BC01CD010895A1E21A2EA9
:100A8000AA1BBB1BFD010DC0AA1FBB1FEE1FFF1F32
:100A9000A217B307E407F50720F0A21BB30BE40B82
:100AA000F50B661F771F881F991F1A9469F76095C9
:100AB0007095809590959B01AC01BD01CF01089583
:100AC0000E946B05A59F900DB49F900DA49F800D73
:100AD000911D11240895A29FB001B39FC001A39F4F
:100AE000700D811D1124911DB29F700D811D112467
:100AF000911D0895FC016150704001900110D8F7DC
:0E0B0000809590958E0F9F1F0895F894FFCF5B
:100B0E000000000000000000DF0100003F010000B7
:100B1E00FFFFFFFFFFFFFFFFFFFFFF0000000000D2
:100B2E0000000000000000000000000000000000B7
:100B3E0000000000000000000000000000000000A7
:100B4E000000000000000000000000000000000097
:100B5E000000000000000000000000000000000087
:100B6E000000000000000000000000000000000077
:100B7E000000000000000000000000000000000067
:100B8E000000000000000000000000000000000057
:100B9E000000000000000000000000000000000047
:100BAE000000000000000000000000000000000037
:100BBE000000000000000000000000000000000027
:100BCE000000000000000000000000000000000017
:100BDE000000000000000000000000000000000007
:100BEE0000000000000000000000000000000000F7
:100BFE0000000000000000000000000000000000E7
:100C0E0000000000000000000000000000000000D6
:100C1E000000000000000000000000E7DBDBBD81EB
:100C2E00BD7E7EC0BEDE827E7E7E80837DFDFEFE2C
:100C3E00FD7D83C0BE7E7E7E7EBEC000FEFEFEE0DB
:100C4E00FEFE0000FEFEF0FEFEFEFEC7B9BDFEFE7D
:100C5E001DB9C7BD7E7E7E007E7EBD00E7E7E7E75D
:100C6E00E7E70000EFEFEFEFEFEEF13CDCECF4F82E
:100C7E00F4EC9CFEFEFEFEFEFEFE00BD3C5A667EC1
:100C8E007E7E7E7D7A7A766E5E5EBEC3BD7E7E7E13
:100C9E007EBDC3817E7E7E80FEFEFEC3BD7E7E7ED9
:100CAE005EBD43817E7E7E80F6EEDE837DFEFE811E
:100CBE007F7E818166E7E7E7E7E7E77E7E7E7E7EE1
:100CCE007EBDC37E7E7EBDBDDBDBE77E7E7E7E6629
:100CDE005A3CBD7EBDDBE7E7DBBD7E7E7EBDDBE73E
:100CEE00E7E7E700BFDFEFF7FBFD00414243444576
:100CFE00464748494B4C4D4E5958575655545352EA
:040D0E0051504F00F1
:00000001FF
