:100000000C9472000C9486000C9486000C9486006C
:100010000C9486000C9486000C9486000C94860048
:100020000C9486000C9486000C9486000C94860038
:100030000C9486000C9486000C9486000C94860028
:100040000C9486000C9486000C9486000C94860018
:100050000C9486000C9486000C9486000C94860008
:100060000C9486000C9486000C9486000C948600F8
:100070000C9486000C9486000C9486000C948600E8
:100080000C9486000C9486000C9486000C948600D8
:100090000C9486000C9486000C9486000C948600C8
:1000A0000C9486000C9486000C9486000C948600B8
:1000B0000C9486000C9486000C9486000C948600A8
:1000C0000C9486000C9486000C9486000C94860098
:1000D0000C9486000C9486000C9486000C94860088
:1000E0000C94860011241FBECFEFD1E2DEBFCDBF3E
:1000F00000E00CBF22E0A0E0B2E001C01D92A630FB
:10010000B207E1F70E94BA000C94BD000C94000005
:100110009093C5008093C40082E08093C00088E182
:100120008093C10086E08093C20008959091C00042
:1001300095FFFCCF8093C6000895CF93DF93EC0129
:100140008991811103C0DF91CF9108950E9496009B
:10015000F7CF8091C60008958BB1887F8BB98BB1A2
:1001600087608BB989B18695817080930002109267
:0E0170000102089590E080E00895F894FFCF1A
:00000001FF
